:100000000AC01AC018C017C016C015C014C013C04B
:100010003CC011C057C011271FBFCFE5D0E0DEBFE5
:10002000CDBF20E0A0E4B0E001C01D93A334B2072F
:10003000E1F75ED096C0E4CF1F930F930FB70F93F5
:1000400010E04F935F93EF93FF93F8941DBB13BBA6
:10005000029B0BC015BB41E0E0E4F0E04083E1E42B
:10006000F0E05081451B408305C043E045BBE0E420
:10007000F0E0108343E441BFFF91EF915F914F9116
:100080000F910FBF0F911F9118951F930F930FB7EB
:100090000F9310E04F93EF93FF93F894E0E4F0E0B8
:1000A0004081411304C0E2E4F0E041E0408311BF2D
:1000B00041E043BBFF91EF914F910F910FBF0F9123
:1000C0001F9118951F930F930FB70F9310E04F9345
:1000D0005F93EE9A49B34F3720F44FE350E055BD9C
:1000E00044BD5F914F910F910FBF0F911F911895D4
:1000F00042E041B953E055BB51E053BB51E25EBD14
:100100004DBD4FEF50E055BD44BD4CE84DBBEE9AA0
:100110004AB7417F44604ABFA0E4B0E0E2E4F0E0C7
:10012000C1E4D0E04FEF50E06FE770E09CE87894D6
:100130008C91882339F08AB781608ABF88958AB705
:100140008E7F8ABF8081813091F78881813019F458
:1001500075BD64BD02C055BD44BD10839DBBEE9A04
:06016000E6CFF894FFCF8A
:00000001FF
