:100000000AC01BC010C00FC00EC00DC00CC00BC07A
:100010000AC009C008C011271FBFCFE5D0E0DEBF6E
:10002000CDBF33D047C0ECCF40E157E20000415094
:10003000510B41175107D1F708951F930F930FB735
:100040000F9310E04F935F936F937F938F939F93E2
:10005000AF93BF93EF93FF93F89442B152E04527DB
:1000600042B9E2DF029BFECFDFDF7894FF91EF9190
:10007000BF91AF919F918F917F916F915F914F91C0
:100080000F910FBF0F911F91189542E041B944E0C5
:1000900043B94DE042B941E043BB4AB7417F4460B8
:1000A0004ABF78944AB741604ABF88954AB74E7FA5
:0800B0004ABFF8CFF894FFCF1E
:00000001FF
