:100000000C943D000C94CA010C94F3010C945A001A
:100010000C945A000C945A000C945A000C945A00F8
:100020000C945A000C94A2010C945A000C945A009F
:100030000C945A000C945A000C945A000C945A00D8
:100040000C945A000C945A000C943F030C947403C3
:100050000C945A000C945B090C945A000C945A00AE
:100060000C945A000C945A003C48573A352E362CC2
:100070002053573A302E310A0D0011241FBECFEF06
:10008000D4E0DEBFCDBF11E0A0E0B1E0E2EEFDE1E3
:1000900002C005900D92AC36B107D9F723E0ACE66B
:1000A000B1E001C01D92A432B207E1F70E94280B13
:1000B0000C94EF0E0C94000080917301882309F4D6
:1000C0008EC0809175018823C9F080917C01909148
:1000D0007D01A0917E01B0917F018F718F5087FFCC
:1000E00006C091EF899F802D1124815004C09FE0AC
:1000F000899F802D112440E060E074C080917401DC
:100100008823F9F060917C0170917D0180917E01DE
:1001100090917F0125E030E040E050E00E94BB0B71
:100120002F712F5027FF06C081EF289F202D11240B
:10013000215004C08FE0289F202D1124422F469586
:100140004FC08091800190918101883E924020F4BF
:1001500040E060E08FEF1BC08091800190918101B1
:100160008B3E924050F080918001909181018432C9
:10017000934018F44FEF60E009C0809180019091A6
:1001800081018732934028F040E06FEF80E00E94C9
:10019000640280918A0090918B00892B29F58091CF
:1001A000880090918900892BF9F487B58F3FE1F49D
:1001B0008091800190918101883E924020F440E03E
:1001C00060E08FEF0FC080918001909181018432B7
:1001D000934010F44FEF04C040E06FEF02C040E0E6
:1001E00060E080E00C946402089528E288E190E0E9
:1001F0000FB6F894A895809360000FBE209360001E
:100200004A9907C08FEF99E50197F1F700C0000008
:10021000F7CF0E94A0021092710110927201E89A29
:100220000895809172018823B1F08091730181114A
:1002300012C00E94C20240E06FEF80E00E946402A0
:100240002FEF8FE995E0215080409040E1F700C00A
:1002500000000E94F500809171018823C9F080910F
:1002600073018823A9F040E060E080E00E9464020E
:100270002D98F8942FEF8FE995E021508040904021
:10028000E1F700C0000078940E94F5000E9401038D
:1002900080917301882319F01B9B0C94010308952E
:1002A000CF92DF92EF92FF920F931F9320918601DE
:1002B0003091870180918801909189013E5F2817D4
:1002C000390770F0009186011091870180918801B3
:1002D000909189011E5F081B190B20E030E003C0DC
:1002E00000E010E09801C0908001D0908101609101
:1002F0007601709177017F70882777FD8095982F20
:10030000E12CF12C46E1CC0CDD1CEE1CFF1C4A95C7
:10031000D1F76C297D298E299F2913702227332735
:100320005CE0000F111F221F331F5A95D1F7602B7D
:10033000712B822B932B1F910F91FF90EF90DF90E9
:10034000CF9008951F920F920FB60F9211248F93A2
:100350009F93AF93BF938FE68093B20080917C010F
:1003600090917D01A0917E01B0917F010196A11D28
:10037000B11D80937C0190937D01A0937E01B09389
:100380007F01BF91AF919F918F910F900FBE0F9002
:100390001F9018951F920F920FB60F9211248F93F2
:1003A0009F93F89483E08CBB89E993E00197F1F780
:1003B00000C04A9910C0E89880917301882331F0F9
:1003C0001092720181E08093710105C01092710159
:1003D00081E08093720178949F918F910F900FBE6E
:1003E0000F901F9018951F920F920FB60F92112425
:1003F0002F938F939F93F8942FEF8FE392E02150E8
:1004000080409040E1F700C000004B990CC083E0B1
:100410008CBBE99881E0809372011092710183E3B3
:1004200097E00197F1F778949F918F912F910F901A
:100430000FBE0F901F901895EF92FF920F931F938E
:10044000409178015091790160917A0170917B011E
:1004500080917C0190917D01A0917E01B0917F01FE
:10046000481759076A077B0751F160917C01709129
:100470007D0180917E0190917F0124E630E040E093
:1004800050E00E94BB0B672B682B692BC1F486E7F9
:10049000E82E81E0F82E00E010E021E043E250E099
:1004A00064E270E085E290E00E94910621E043E280
:1004B00050E064E270E085E290E00E9493051F91B5
:1004C0000F91FF90EF90089590E090938B008093B0
:1004D0008A00609567BD50E0509389004093880082
:1004E000089584B1866084B9569A84B5836C84BDBE
:1004F00085B5836085BDE0E8F0E080818A6A80830D
:10050000E1E8F0E08081836080838FEF87BD109207
:1005100089001092880010928B0010928A00089532
:1005200086E08093B10081E0809370008FE6809335
:10053000B20008958FE880937A0010927C000895AD
:10054000A89514BEE0E6F0E0808188618083108287
:1005500088E10FB6F89480936000109260000FBE9F
:1005600008958BB18C608BB981E08DBB10926900CE
:10057000089586B183FB882780F991E089278093CD
:1005800075010895AF92CF92EF920F931F93F89455
:10059000E4E6F0E080818D7F808380818E7F8083A0
:1005A0000E9490020E949A0287E190E00E94A003BC
:1005B00090E6A92E20E5C22E3EECE32E00E010E0EE
:1005C00021E043E250E064E270E085E290E00E94C6
:1005D00019062B9A5F9A8FEF93EB0197F1F700C002
:1005E00000002D9A2C98559A5D9A0E946D0A81E020
:1005F0008093730178941F910F91EF90CF90AF90FB
:100600000895F8941092C1001092730110927C0129
:1006100010927D0110927E0110927F011092700164
:1006200010927A00E4E6F0E080818360808328986D
:10063000209855985D9810928B0010928A008FEF49
:1006400087BD10928900109288002B982D985F9892
:100650002C9AE89AE99A789483B7816083BF889549
:1006600083B78E7F83BF08950E94A0020E9471020B
:100670000E94B102249A259A579A789408951F925D
:100680000F920FB60F9211242F933F934F935F93C6
:100690008F939F93EF93FF934091C0005091C600BA
:1006A000487180918C0190E001968F70992720917C
:1006B0008B0130E08217930739F080938C01FC01A5
:1006C000E157FE4F508301C042E040938A01FF9101
:1006D000EF919F918F915F914F913F912F910F904B
:1006E0000FBE0F901F9018951F920F920FB60F928A
:1006F00011248F939F93EF93FF9390918E0180919C
:100700008D01981779F080918D0190E001968F7797
:10071000992780938D01FC01E156FE4F80818093E3
:10072000C60005C08091C1008F7D8093C100FF91FC
:10073000EF919F918F910F900FBE0F901F90189582
:1007400010928E0110928D0110928C0110928B01EB
:1007500097FF04C022E02093C0009F779093C500CC
:100760008093C40088E98093C10086E08093C20032
:10077000089590918C0180918B019817A1F0809140
:100780008B0190E001968F70992780938B01FC017B
:10079000E157FE4F208180918A0190E0982F8827B1
:1007A000820F911D089580E091E0089590918C0151
:1007B00080918B01981789F0E0918B01F0E03196E0
:1007C000EF70FF27E157FE4F208180918A0190E072
:1007D000982F8827820F911D089580E091E0089559
:1007E00020918E0130E02F5F3F4F2F7733274091CC
:1007F0008D0150E024173507D1F3F901E156FE4F82
:10080000808320938E018091C10080628093C1001B
:100810000895CF93DF93EC018991882319F00E940A
:10082000F003FACFDF91CF910895CF93DF93FC01CE
:100830008491EF012196882321F00E94F003FE01AC
:10084000F7CFDF91CF91089580918C0120918B019A
:1008500090E04096821B91098F70992708958091AE
:100860008B0180938C010895EF92FF920F931F9359
:10087000CF93DF930E94B903182FEC01D0FD06C17E
:10088000D3FF04C085E091E00E940904D2FF04C0B8
:1008900080E191E00E940904D1FF04C08DE191E064
:1008A0000E94090480911F02823098F4133589F464
:1008B0004FEF60E080E00E9464028CE028E130E0CD
:1008C0000FB6F894A895209360000FBE8093600047
:1008D00010C01E3371F48FE0E82FF0E0E05EFD4FB2
:1008E00010828150C9F781E080931F02109320028B
:1008F000BFC0E0911F02209719F02D9709F0B0C0FA
:100900000E2F10E00031110508F059C0809120022F
:100910008E3309F054C06BE271E080E292E00E94F5
:10092000E90BEC01009709F44AC00230110508F404
:1009300046C080912102833509F441C06DE271E027
:10094000CE010E94EE0B892BE9F5A0917601B091C2
:100950007701E0918801F0918901609186017091A1
:10096000870140918401509185012091820130914D
:1009700083018091800190918101BF93AF93FF9398
:10098000EF937F936F935F934F933F932F939F9337
:100990008F9380E391E09F938F9380E392E09F9306
:1009A0008F930E941E0C80E392E00E9409048DB791
:1009B0009EB740960FB6F8949EBF0FBE8DBFE0E283
:1009C000F2E048C067E571E0CE010E94EE0B892B92
:1009D00059F4E8E6F0E08491EF012196882379F359
:1009E0000E94F003FE01F7CF6AE571E0CE010E949C
:1009F000EE0B892B21F7C0E0D0E08DE5E82E81E0F9
:100A0000F82E00E312E080916C0190916D018C0F43
:100A10009D1F91700E94F70A9F938F937F936F930E
:100A2000DF93CF93FF92EF921F930F930E941E0CC0
:100A300080E392E00E94090421968DB79EB70A9642
:100A40000FB6F8949EBF0FBE8DBFC11592E0D907B7
:100A5000D1F6B5CF119282E0E033F807D9F708C09C
:100A600081E08E0F80931F02F0E0E05EFD4F108367
:100A700080911F02803151F48FE0E82FF0E0E05EBA
:100A8000FD4F10828150C9F710921F02DF91CF9164
:100A90001F910F91FF90EF900895382FFC0180E097
:100AA0004CE89E2F931B961758F4219198E0522FF3
:100AB0005827869550FD842726959150C1F7F1CF90
:100AC00008959F92AF92BF92CF92DF92EF92FF92E2
:100AD0000F931F93CF93DF93EC017B016A01922E5A
:100AE00058010115110521F40CEC0E9488070FC074
:100AF00005E50E94880718E0F50101915F01292DA5
:100B0000A601B701CE010E9488071150A9F7DF9115
:100B1000CF911F910F91FF90EF90DF90CF90BF90FA
:100B2000AF909F900895BF92CF92DF92EF92FF9285
:100B30000F931F93CF93DF93EC017B016A01B22ED9
:100B40000E942307813079F02B2DA601B701CE0139
:100B50000E94610504E42B2DA601B701CE010E947D
:100B6000880780E001C081E0DF91CF911F910F9154
:100B7000FF90EF90DF90CF90BF9008957F928F927B
:100B80009F92AF92BF92CF92DF92EF92FF920F931C
:100B90001F93CF93DF936C015B014A01722EE70133
:100BA0000E942307813089F1272DA401B501C601D8
:100BB0000E9461050EEB272DA401B501C6010E941C
:100BC0008807870129E0F22E272DA401B501C6016F
:100BD0000E94DF07F80181938F01FA94A9F7288119
:100BE00039814A815B816C817D818E819F81A0E00A
:100BF0000E94DD0B69F068E0CE010E944D059885EA
:100C0000891741F092E0F92E05C0FF24F39402C049
:100C100083E0F82E8F2DDF91CF911F910F91FF90E0
:100C2000EF90DF90CF90BF90AF909F908F907F908C
:100C300008956F927F928F929F92AF92CF92EF9290
:100C4000FF920F931F93CF93DF93EC014B013A0177
:100C5000F22E0E942307813021F12F2DA301B40130
:100C6000CE010E9461050EE42F2DA301B401CE0137
:100C70000E9488070E2D2F2DA301B401CE010E94E2
:100C800088070C2D2F2DA301B401CE010E948807E7
:100C90000A2D2F2DA301B401CE010E94880780E008
:100CA00001C081E0DF91CF911F910F91FF90EF90F4
:100CB000CF90AF909F908F907F906F900895BF924C
:100CC000CF92DF92EF92FF920F931F93CF93DF9318
:100CD0007C01EB016A01B22E0E9423078130B1F042
:100CE0002B2DA601BE01C7010E94610508E42B2D32
:100CF000A601BE01C7010E948807F70180818B29E8
:100D0000808388818B29888380E001C081E0DF9126
:100D1000CF911F910F91FF90EF90DF90CF90BF90F8
:100D20000895CF92DF92EF92FF920F931F93CF938C
:100D3000DF93CDB7DEB729970FB6F894DEBF0FBEAD
:100D4000CDBF6701FE0131967F010E94BE05882359
:100D500021F0F601118210820AC08A8190E0982F5A
:100D600088272981822BF6019183808380E0299650
:100D70000FB6F894DEBF0FBECDBFDF91CF911F91AC
:100D80000F91FF90EF90DF90CF9008958F929F92F8
:100D9000AF92BF92CF92DF92EF92FF920F931F9389
:100DA000CF93DF937C016B015A01922EE8012097CB
:100DB000A1F10E942307813091F103E3292DA501C0
:100DC000B601C7010E9488078E0148E0842E292DB4
:100DD000A501B601C7010E94DF07F80181938F01C9
:100DE0008A94A9F71F8189819881892B9A81892BFF
:100DF0009B81892B9C81892B9D81892B9E81892BAD
:100E0000812B79F067E0CE010E944D05811759F0E2
:100E100088E019928150E9F708C084E007C081E0BA
:100E200005C083E003C080E001C082E0DF91CF9184
:100E30001F910F91FF90EF90DF90CF90BF90AF90F8
:100E40009F908F900895CF93DF93FC01DB013FB714
:100E5000F8948081822B80838C91822B8C9380816B
:100E6000922F909589238083C8E2D2E02197F1F7F1
:100E700000C000008C9189238C93DBE7DA95F1F7B1
:100E8000EA019881D6EFDA95F1F78081822B808391
:100E90008C91822B8C93E8E2F2E03197F1F700C05D
:100EA00000003FBF922381E009F480E0DF91CF9101
:100EB00008950F93FC019FB7F8948081822B808363
:100EC000DB018C91822B8C938081322F3095832390
:100ED0008083002321F0BAE0BA95F1F704C082E6DE
:100EE0008A95F1F700008081822B8083002329F00E
:100EF000A2E6AA95F1F7000004C0B2E0BA95F1F7B6
:100F000000C09FBF81E0011101C080E00F910895F2
:100F10007F928F929F92AF92BF92CF92DF92EF9289
:100F2000FF920F931F93CF93DF937C016B015A01C4
:100F3000822E702E9FB6F894C8E0D0E011E0012F09
:100F40000721282DA501B601C7010E945907110FDD
:100F500021972097A1F79FBEDF91CF911F910F910D
:100F6000FF90EF90DF90CF90BF90AF909F908F90C9
:100F70007F900895FC01DB013FB7F8948081822BBC
:100F800080838C91822B8C938081922F90958923E2
:100F9000808382E08A95F1F700C08C9189238C933D
:100FA000E6E0EA95F1F70000FA019081FAE4FA959B
:100FB000F1F73FBF922381E009F480E008958F921A
:100FC0009F92AF92BF92CF92DF92EF92FF920F93D8
:100FD0001F93CF93DF938C017B016A01822E9FB612
:100FE000F894C8E0D0E0AA24A394B12C282DA6013F
:100FF000B701C8010E94BA07A89E802D1124B82A03
:10100000AA0C2197209791F79FBE8B2DDF91CF914E
:101010001F910F91FF90EF90DF90CF90BF90AF9016
:101020009F908F9008952F923F924F925F926F9270
:101030007F928F929F92AF92BF92CF92DF92EF9268
:10104000FF920F931F93CF93DF93CDB7DEB76297D5
:101050000FB6F894DEBF0FBECDBF5C014B013A0165
:10106000322E1A870987F88AEF86DA8AC98AFE0142
:10107000319688E0DF011D928A95E9F7CFB6E985C0
:10108000FA85EF2B09F4FDC0F894D12C4424439445
:10109000512C232DA301B401C5010E9423078130E7
:1010A00029F4A985BA851C92CFBEECC000EF232D90
:1010B000A301B401C5010E94880728E0D29EF00177
:1010C0001124FC87EB878F8598898E0F9F1F9E8741
:1010D0008D87E12CF12C2E2C232DA301B401C50109
:1010E0000E94BA07082F232DA301B401C5010E9455
:1010F000BA07182F110F102B133020F4113058F0AD
:10110000117061C0133009F05EC0A985BA851C92C8
:10111000CFBE81E0B7C0970183E0369527958A95C9
:10112000E1F7922FFE01399650E087E0981720F4FE
:101130004291542B8150FACF422D4770E1E0F0E00C
:10114000EC0FFD1FE20FF31F808190E021E0240FE0
:1011500002C0959587952A95E2F7852B922D969555
:1011600096959695E1E0F0E0EC0FFD1FE90FF11D7B
:101170008823A9F0808190E09201042E02C0220F02
:10118000331F0A94E2F78223932302C09595879533
:101190004A95E2F711E08823B1F010E014C05081C5
:1011A0009201042E02C0220F331F0A94E2F7852F0A
:1011B00090E08223932302C0959587954A95E2F7A4
:1011C000182F25272083012F232DA301B401C5014A
:1011D0000E945907EF85F889EF2B99F1E22DE695EA
:1011E000E695E695F0E08B859C858E0F9F1F2989FB
:1011F0003A898217930728F0A985BA851C92CFBE39
:1012000040C02D853E8521153105D9F0822D87708E
:10121000E20FF31F112351F0D20102C0AA0FBB1F2E
:101220008A95E2F7CD019081982B0AC0920102C005
:10123000220F331F8A95E2F7C90180959081982388
:1012400090833FEFE31AF30A80E4E816F10409F013
:1012500042CFD39469F029813A814B815C816D81C1
:101260007E818F819885A0E00E94DD0B09F011CF6F
:10127000A985BA85DC92CFBE81E0DD2019F080E03F
:1012800001C084E062960FB6F894DEBF0FBECDBFFA
:10129000DF91CF911F910F91FF90EF90DF90CF9052
:1012A000BF90AF909F908F907F906F905F904F9086
:1012B0003F902F9008951F920F920FB60F92112416
:1012C0002F933F934F935F936F937F938F939F934E
:1012D000AF93BF93CF93DF93EF93FF93E0916E01B2
:1012E000F0E08091780090917900EE0FFF1FE055BB
:1012F000FD4F91838083E0916E0120916F01A09159
:101300006E01B0E0AA0FBB1FA055BD4F8D919C91FF
:101310003AE0E39FF0011124E20FF11DEE0FFF1FF1
:10132000E054FD4F9183808320E030E060E070E086
:10133000CB01AAE040916E01F901A49FE00DF11DDF
:101340001124EE0FFF1FE054FD4F40815181640FC7
:10135000751F811D911D2F5F3F4F2A30310551F7B9
:10136000C0916E01D0E02AE030E040E050E00E9401
:10137000BB0BCC0FDD1FC058DE4F39832883809113
:101380006E018F5F80936E0180916E018530A0F0B9
:1013900010926E0180916F018F5F80936F01809139
:1013A0006F018A3048F080916E01811103C081E0A5
:1013B0008093700110926F0190917C00E0916E011A
:1013C000F0E0E050FF4F8081907F892B80937C007C
:1013D000FF91EF91DF91CF91BF91AF919F918F914D
:1013E0007F916F915F914F913F912F910F900FBE21
:1013F0000F901F90189540917C0150917D01609154
:101400007E0170917F018091780190917901A09186
:101410007A01B0917B01481759076A077B0749F0A9
:1014200080917A00806480937A008CE08A95F1F74D
:1014300000000895209188013091890180918601F2
:101440009091870128173907E8F4809186019091DF
:1014500087012091880130918901821B930B0D97A0
:1014600088F080917C0190917D01A0917E01B091E6
:101470007F01893C9105A105B10570F181E0809360
:1014800074010895809174018823C9F02091880126
:10149000309189018091860190918701821793078D
:1014A00060F08091860190918701209188013091B0
:1014B0008901821B930B099710F4109274012091FB
:1014C000880130918901809186019091870182176E
:1014D000930710F41092740108958AE08093B80085
:1014E00008951092BC0094EA9093BC009091BC00C7
:1014F00097FFFCCF9091B900987F983011F0903110
:1015000079F4880F862B8093BB0084E88093BC001D
:101510008091BC0087FFFCCF8091B900887F08953F
:10152000892F08958093BB0084E88093BC0085E6F2
:101530009091BC0097FD07C0815029F09CE09A95DE
:10154000F1F70000F5CF8091B900887F089584EC11
:101550008093BC008091BC0087FFFCCF8091BB00D2
:10156000089584E88093BC008091BC0087FFFCCF85
:101570008091BB00089584E98093BC008091BC00F9
:1015800084FDFCCF80E00895EF92FF921F93CF93EC
:10159000DF9300D01F92CDB7DEB7162F7C01EE0C83
:1015A000FF1CEE0CFF1C60E08F2D80654B835A837F
:1015B00079830E94710A8E2D0E94920A7981872F69
:1015C0000E94920A812F0E94920A5A81852F0E94BE
:1015D000920A4B81842F0E94920A0F900F900F90D5
:1015E000DF91CF911F91FF90EF900C94BB0A0F9366
:1015F0001F93CF93DF93EC01CC0FDD1FCC0FDD1FCA
:10160000D06560E08D2F0E94710A8C2F0E94920A93
:1016100061E08D2F0E94710A0E94A70A182F0E9474
:10162000A70A082F0E94A70AC82F0E94B10AD82F24
:101630000E94BB0A802F90E0A0E0B0E077276627E9
:10164000912B6D2B7C2BDF91CF911F910F910895E2
:101650000E94340383B7817F846083BF0E940103AB
:10166000C8E1D0E01CE00E9411010E94B9020E9472
:1016700034040E94FB090E941A0A0E941C028091F5
:10168000700181110E945C004091780150917901B4
:1016900060917A0170917B0180917C0190917D0134
:1016A000A0917E01B0917F01481759076A077B0717
:1016B000D1F280917C0190917D01A0917E01B09149
:1016C0007F014091BC025091BD026091BE027091B9
:1016D000BF02841B950BA60BB70B81379741A10561
:1016E000B105C0F10FB6F894A895C09360000FBE85
:1016F000109360000E945001AB01BC0180916C010D
:1017000090916D010E94C40A0E94A00280916C0118
:1017100090916D01019690936D0180936C01809181
:101720006C0190916D018115924020F010926D0135
:1017300010926C0180917C0190917D01A0917E01BD
:10174000B0917F018093BC029093BD02A093BE0232
:10175000B093BF0280917C0190917D01A0917E01A8
:10176000B0917F018093780190937901A0937A01E1
:10177000B0937B0178CFA1E21A2EAA1BBB1BFD01FF
:101780000DC0AA1FBB1FEE1FFF1FA217B307E40760
:10179000F50720F0A21BB30BE40BF50B661F771FB8
:1017A000881F991F1A9469F7609570958095909598
:1017B0009B01AC01BD01CF0108950024A7FD009459
:1017C0002A17300540055005600570058005900515
:1017D00008954AEB52E00E94F70B0895FB01DC01EB
:1017E0008D91019080190110D9F3990B0895FA0198
:1017F000A191B081009719F41097E1F0CD01DC01BF
:10180000CD010D90002011F4C00113C0FB01219106
:10181000222319F02015D9F7F3CFFB0121912015D0
:1018200019F41E92119606C02223C1F70D900020D4
:10183000A1F7D001FA01A193B0830895AEE0B0E022
:10184000E4E2FCE00C94C60E0D891E8986E08C83D0
:101850001A8309838FEF9FE79E838D83AE01475ED6
:101860005F4F6F89788DCE0101960E94400CEF8109
:10187000F885E00FF11F10822E96E4E00C94E20E42
:10188000ACE0B0E0E6E4FCE00C94B80E7C016B0147
:101890008A01FC0117821682838181FFBDC1CE01BE
:1018A00001964C01F7019381F60193FD859193FF19
:1018B00081916F01882309F4ABC1853239F493FD1E
:1018C000859193FF81916F01853229F4B70190E0F2
:1018D0000E94280EE7CF512C312C20E02032A0F4BA
:1018E0008B3269F030F4803259F0833269F4206130
:1018F0002CC08D3239F0803339F4216026C022604B
:10190000246023C0286021C027FD27C030ED380F98
:101910003A3078F426FF06C0FAE05F9E300D1124BD
:10192000532E13C08AE0389E300D1124332E2062CE
:101930000CC08E3221F426FD6BC1206406C08C36AB
:1019400011F4206802C0883641F4F60193FD8591B8
:1019500093FF81916F018111C1CF982F9F7D955485
:10196000933028F40C5F1F4FFFE3F9830DC08336DB
:1019700031F0833771F0833509F05BC022C0F80184
:10198000808189830E5F1F4F44244394512C54015E
:1019900015C03801F2E06F0E711CF801A080B18013
:1019A00026FF03C0652D70E002C06FEF7FEFC50119
:1019B0002C870E941D0E2C0183012C852F77222E4F
:1019C00017C03801F2E06F0E711CF801A080B180E1
:1019D00026FF03C0652D70E002C06FEF7FEFC501E9
:1019E0002C870E94120E2C012C852068222E830148
:1019F00023FC1BC0832D90E048165906B0F4B701B4
:101A000080E290E00E94280E3A94F4CFF50127FC82
:101A1000859127FE81915F01B70190E00E94280E19
:101A200031103A94F1E04F1A51084114510471F702
:101A3000E5C0843611F0893639F5F80127FF07C073
:101A400060817181828193810C5F1F4F08C060812A
:101A50007181882777FD8095982F0E5F1F4F2F7615
:101A6000B22E97FF09C090958095709561957F4F34
:101A70008F4F9F4F2068B22E2AE030E0A4010E94D1
:101A80005A0EA82EA81844C0853729F42F7EB22EEE
:101A90002AE030E025C0F22FF97FBF2E8F36C1F04B
:101AA00018F4883579F0B4C0803719F0883721F000
:101AB000AFC02F2F2061B22EB4FE0DC08B2D8460DD
:101AC000B82E09C024FF0AC09F2F9660B92E06C009
:101AD00028E030E005C020E130E002C020E132E043
:101AE000F801B7FE07C060817181828193810C5F2C
:101AF0001F4F06C06081718180E090E00E5F1F4F34
:101B0000A4010E945A0EA82EA818FB2DFF77BF2E05
:101B1000B6FE0BC02B2D2E7FA51450F4B4FE0AC0C8
:101B2000B2FC08C02B2D2E7E05C07A2C2B2D03C0B5
:101B30007A2C01C0752C24FF0DC0FE01EA0DF11DA9
:101B40008081803311F4297E09C022FF06C073947E
:101B5000739404C0822F867809F0739423FD13C018
:101B600020FF06C05A2C731418F4530C5718732C0A
:101B7000731468F4B70180E290E02C870E94280E6D
:101B800073942C85F5CF731410F4371801C0312CE1
:101B900024FF12C0B70180E390E02C870E94280E3A
:101BA0002C8522FF17C021FF03C088E590E002C00A
:101BB00088E790E0B7010CC0822F867859F021FDAC
:101BC00002C080E201C08BE227FD8DE2B70190E008
:101BD0000E94280EA51438F4B70180E390E00E941B
:101BE000280E5A94F7CFAA94F401EA0DF11D8081D2
:101BF000B70190E00E94280EA110F5CF332009F420
:101C000051CEB70180E290E00E94280E3A94F6CFC0
:101C1000F7018681978102C08FEF9FEF2C96E2E15A
:101C20000C94D40EFC010590615070400110D8F75F
:101C3000809590958E0F9F1F0895FC016150704014
:101C400001900110D8F7809590958E0F9F1F0895F1
:101C50000F931F93CF93DF93182F092FEB018B81E5
:101C600081FD03C08FEF9FEF20C082FF10C04E8127
:101C70005F812C813D81421753077CF4E881F98113
:101C80009F012F5F3F4F39832883108306C0E8856B
:101C9000F985812F0995892B29F72E813F812F5FA7
:101CA0003F4F3F832E83812F902FDF91CF911F9144
:101CB0000F910895FA01AA27283051F1203181F1BE
:101CC000E8946F936E7F6E5F7F4F8F4F9F4FAF4F44
:101CD000B1E03ED0B4E03CD0670F781F891F9A1F57
:101CE000A11D680F791F8A1F911DA11D6A0F711D0B
:101CF000811D911DA11D20D009F468943F912AE017
:101D0000269F11243019305D3193DEF6CF010895FE
:101D1000462F4770405D4193B3E00FD0C9F7F6CF2F
:101D2000462F4F70405D4A3318F0495D31FD4052F7
:101D3000419302D0A9F7EACFB4E0A695979587958D
:101D400077956795BA95C9F700976105710508956C
:101D50009B01AC010A2E0694579547953795279518
:101D6000BA95C9F7620F731F841F951FA01D0895B0
:101D70002F923F924F925F926F927F928F929F929B
:101D8000AF92BF92CF92DF92EF92FF920F931F9389
:101D9000CF93DF93CDB7DEB7CA1BDB0B0FB6F8943A
:101DA000DEBF0FBECDBF09942A88398848885F847A
:101DB0006E847D848C849B84AA84B984C884DF80EB
:101DC000EE80FD800C811B81AA81B981CE0FD11DCF
:101DD0000FB6F894DEBF0FBECDBFED010895F894A5
:021DE000FFCF33
:101DE20000010206073C214531204672616D650003
:101DF2003C214532204F76657272756E003C21455A
:101E020033204F766572666C6F770020003E3F008C
:101E12003C20253034642C20253034642C2025309D
:101E220034642C20253034642C20253034642C205A
:101E3200253034640A0D003E56003E44003C4425E1
:0C1E42003033642530386C580A0D000065
:00000001FF
