:100000000C9437000C9454000C9454000C9454003D
:100010000C9454000C9454000C9454000C94540010
:100020000C9454000C943F020C9454000C94540013
:100030000C9454000C9454000C9454000C945400F0
:100040000C9454000C9454000C9456000C948B00A7
:100050000C9454000C945A030C9454000C945400C7
:100060000C9454000C9454003C4F4B0A0D00112486
:100070001FBECFEFD4E0DEBFCDBF11E0A0E0B1E006
:10008000E8E4FFE002C005900D92A037B107D9F770
:1000900022E0A0E7B1E001C01D92A033B207E1F772
:1000A0000E9427040C94A2070C9400001F920F9248
:1000B0000FB60F9211242F933F934F935F938F931B
:1000C0009F93EF93FF934091C0005091C6004871F9
:1000D0008091800190E001968F70992720917F0197
:1000E00030E08217930739F080938001FC01ED57CF
:1000F000FE4F508301C042E040937E01FF91EF919B
:100100009F918F915F914F913F912F910F900FBED3
:100110000F901F9018951F920F920FB60F921124F7
:100120008F939F93EF93FF93909182018091810130
:10013000981779F08091810190E001968F77992747
:1001400080938101FC01ED56FE4F80818093C600B3
:1001500005C08091C1008F7D8093C100FF91EF9118
:100160009F918F910F900FBE0F901F901895109236
:100170008201109281011092800110927F0197FFFD
:1001800004C022E02093C0009F779093C500809325
:10019000C40088E98093C10086E08093C20008957E
:1001A0009091800180917F019817A1F080917F014B
:1001B00090E001968F70992780937F01FC01ED57A5
:1001C000FE4F208180917E0190E0982F8827820F3A
:1001D000911D089580E091E00895909180018091B3
:1001E0007F01981789F0E0917F01F0E03196EF7080
:1001F000FF27ED57FE4F208180917E0190E0982FE0
:100200008827820F911D089580E091E00895209144
:10021000820130E02F5F3F4F2F77332740918101DC
:1002200050E024173507D1F3F901ED56FE4F8083D6
:10023000209382018091C10080628093C100089563
:10024000CF93DF93EC018991882319F00E94070175
:10025000FACFDF91CF910895CF93DF93FC01849182
:10026000EF012196882321F00E940701FE01F7CFBC
:10027000DF91CF9108958091800120917F0190E0DE
:100280004096821B91098F709927089580917F0174
:10029000809380010895CF93DF93E8E6F0E08491A6
:1002A000EF012196882321F00E940701FE01F7CF7C
:1002B000DF91CF910895EF92FF920F931F93CF9309
:1002C000DF93CDB7DEB7C058D1090FB6F894DEBFC3
:1002D0000FBECDBF0E94D000F82E082F192F10FDA1
:1002E000C0C013FF04C08BE291E00E94200112FF06
:1002F00004C086E391E00E94200111FF04C083E462
:1003000091E00E942001809113028230A0F483E5E5
:10031000F81211C040E060E08FEF0E9467028CE0AD
:1003200028E130E00FB6F894A895209360000FBE46
:100330008093600011C09EE3F9120EC08FE0E82F99
:10034000F0E0EC5EFD4F10828150C9F781E08093B0
:100350001302F092140277C00115110521F00D303F
:10036000110509F066C040E060E08FEF0E9467026F
:10037000E0901302F12C80E1E816F104F8F480918A
:1003800014028E33D9F461E571E084E192E00E94B9
:100390009C048C01009791F092E0E916F10470F052
:1003A00080911502833569F463E571E0C8010E940C
:1003B000A104892B19F4C8010E944B01E4E1F2E089
:1003C0002DC067E571E0C8010E94A104892BB1F737
:1003D00040917C0150917D0120917A0130917B0107
:1003E00080917801909179015F934F933F932F9380
:1003F0009F938F938AE591E09F938F938E010F5F78
:100400001F4F1F930F930E94D104C8010E94200127
:100410000FB6F894DEBF0FBECDBFD0CF119292E0E1
:10042000E432F907D9F740E060E080E00E9467021B
:100430000AC0E091130281E08E0F80931302F0E076
:10044000EC5EFD4FF08280911302803151F48FE019
:10045000E82FF0E0EC5EFD4F10828150C9F710925A
:100460001302C058DF4F0FB6F894DEBF0FBECDBFEA
:10047000DF91CF911F910F91FF90EF9008951F9200
:100480000F920FB60F9211248F939F93AF93BF9348
:100490008FE68093B2008091740190917501A091D4
:1004A0007601B09177010196A11DB11D8093740171
:1004B00090937501A0937601B0937701BF91AF91AE
:1004C0009F918F910F900FBE0F901F90189590E005
:1004D00090938B0080938A00609567BD50E05093A5
:1004E000890040938800089584B1866084B9569A43
:1004F00084B5836C84BD85B5836085BDE0E8F0E09C
:1005000080818A6A8083E1E8F0E080818360808373
:100510008FEF87BD109289001092880010928B0097
:1005200010928A00089586E08093B10081E0809364
:1005300070008FE68093B2000895399A8FE8809317
:100540007A0080E480937C000895A89514BEE0E6CC
:10055000F0E0808188618083108288E10FB6F89492
:1005600080936000109260000FBE08954598089532
:10057000459A08953D9A0C94B6020E94A5020E94E5
:10058000740285E090E00E94B7000E9493020E94EE
:100590009D020E94BA024298789408952898209A61
:1005A0008CE891E00197F1F7000020989AE49A9581
:1005B000F1F783B1E3E8F1E03197F1F78170089545
:1005C0002898209A00C000C0811120988DE38A9558
:1005D000F1F700C0209808952898209A00C000C024
:1005E00020988CE08A95F1F7000083B191E39A9509
:1005F000F1F7000081700895CF93DF93D9E0C0E058
:10060000D15049F00E94EC0220E8829FC0011124E1
:10061000C695C82BF5CF8C2FDF91CF910895CF933E
:10062000DF93D82FC9E0C15031F08D2F81700E9427
:10063000E002D695F8CFDF91CF910895CF93DF9365
:100640000E94CE028CEC0E940F0384E40E940F03F0
:100650000E94EC028823E1F30E94CE028CEC0E94FF
:100660000F038EEB0E940F030E94FC02C82F0E9412
:10067000FC02D82F0E94CE024C2F42954F70D770AB
:1006800080E1D89F90011124422BCF7021E732E006
:10069000C29FC001C39F900D112468EE73E00E94B9
:1006A0006604CB012AE04202800D911D1124DF91E6
:1006B000CF9108951F920F920FB60F9211248F932E
:1006C0009F93EF93FF93E0912602F0E080917800F2
:1006D00090917900EE0FFF1FE85DFD4F91838083BD
:1006E000FF91EF919F918F910F900FBE0F901F90F0
:1006F0001895409174015091750160917601709147
:1007000077018091700190917101A0917201B09177
:100710007301481759076A077B0709F497C080914E
:1007200026028F5F8093260280912602833010F08C
:100730001092260290917C00E0912602F0E0E85DA4
:10074000FE4F8081907F892B80937C0080912602D0
:10075000811139C04198E0912702F0E08091280290
:1007600090912902EE0FFF1FEC5EFE4F9183808374
:10077000809127028F5F80932702809127028A3021
:1007800010F01092270220E030E060E070E0CB0132
:10079000F901EE0FFF1FEC5EFE4F40815181640FA7
:1007A000751F811D911D2F5F3F4F2A30310581F745
:1007B0002AE030E040E050E00E947A043093790172
:1007C000209378013AC0419A80912602813069F5E0
:1007D000E0912702F0E080912A0290912B02EE0F27
:1007E000FF1FE050FF4F9183808320E030E060E006
:1007F00070E0CB01F901EE0FFF1FE050FF4F408189
:100800005181640F751F811D911D2F5F3F4F2A304D
:10081000310581F72AE030E040E050E00E947A04A0
:1008200030937B0120937A0108C080912C02909133
:100830002D0290937D0180937C0180917A008064E9
:1008400080937A008CE08A95F1F7000008950E9469
:10085000BD024FEF6FEF8FEF0E9467022FEF8FE126
:1008600091E0215080409040E1F700C0000040E05E
:1008700060E080E00E9467020E945B010E947903B1
:1008800040917001509171016091720170917301FA
:100890008091740190917501A0917601B0917701DA
:1008A000481759076A077B0739F3809174019091C3
:1008B0007501A0917601B0917701809370019093BA
:1008C0007101A0937201B0937301D6CFAA1BBB1B19
:1008D00051E107C0AA1FBB1FA617B70710F0A61B40
:1008E000B70B881F991F5A95A9F780959095BC0161
:1008F000CD010895A1E21A2EAA1BBB1BFD010DC05C
:10090000AA1FBB1FEE1FFF1FA217B307E407F507BF
:1009100020F0A21BB30BE40BF50B661F771F881F9B
:10092000991F1A9469F760957095809590959B0131
:10093000AC01BD01CF0108954EE252E00E94AA042D
:100940000895FB01DC018D91019080190110D9F30C
:10095000990B0895FA01A191B081009719F41097AD
:10096000E1F0CD01DC01CD010D90002011F4C001BA
:1009700013C0FB012191222319F02015D9F7F3CFE1
:10098000FB012191201519F41E92119606C0222315
:10099000C1F70D900020A1F7D001FA01A193B08317
:1009A0000895AEE0B0E0E7EDF4E00C9479070D892E
:1009B0001E8986E08C831A8309838FEF9FE79E83CD
:1009C0008D83AE01475E5F4F6F89788DCE010196B2
:1009D0000E94F304EF81F885E00FF11F10822E963C
:1009E000E4E00C949507ACE0B0E0E9EFF4E00C949F
:1009F0006B077C016B018A01FC01178216828381DF
:100A000081FFBDC1CE0101964C01F7019381F60132
:100A100093FD859193FF81916F01882309F4ABC108
:100A2000853239F493FD859193FF81916F01853271
:100A300029F4B70190E00E94DB06E7CF512C312C5E
:100A400020E02032A0F48B3269F030F4803259F08B
:100A5000833269F420612CC08D3239F0803339F44F
:100A6000216026C02260246023C0286021C027FDA9
:100A700027C030ED380F3A3078F426FF06C0FAE090
:100A80005F9E300D1124532E13C08AE0389E300D26
:100A90001124332E20620CC08E3221F426FD6BC14E
:100AA000206406C08C3611F4206802C0883641F4F8
:100AB000F60193FD859193FF81916F018111C1CF63
:100AC000982F9F7D9554933028F40C5F1F4FFFE3C0
:100AD000F9830DC0833631F0833771F0833509F027
:100AE0005BC022C0F801808189830E5F1F4F4424C0
:100AF0004394512C540115C03801F2E06F0E711C63
:100B0000F801A080B18026FF03C0652D70E002C00F
:100B10006FEF7FEFC5012C870E94D0062C01830167
:100B20002C852F77222E17C03801F2E06F0E711C32
:100B3000F801A080B18026FF03C0652D70E002C0DF
:100B40006FEF7FEFC5012C870E94C5062C012C8515
:100B50002068222E830123FC1BC0832D90E04816C1
:100B60005906B0F4B70180E290E00E94DB063A94A7
:100B7000F4CFF50127FC859127FE81915F01B70134
:100B800090E00E94DB0631103A94F1E04F1A5108D0
:100B90004114510471F7E5C0843611F0893639F5F6
:100BA000F80127FF07C060817181828193810C5F0A
:100BB0001F4F08C060817181882777FD8095982F2D
:100BC0000E5F1F4F2F76B22E97FF09C0909580952C
:100BD000709561957F4F8F4F9F4F2068B22E2AE00E
:100BE00030E0A4010E940D07A82EA81844C0853744
:100BF00029F42F7EB22E2AE030E025C0F22FF97FB3
:100C0000BF2E8F36C1F018F4883579F0B4C0803724
:100C100019F0883721F0AFC02F2F2061B22EB4FE1B
:100C20000DC08B2D8460B82E09C024FF0AC09F2FF1
:100C30009660B92E06C028E030E005C020E130E023
:100C400002C020E132E0F801B7FE07C06081718187
:100C5000828193810C5F1F4F06C06081718180E0AB
:100C600090E00E5F1F4FA4010E940D07A82EA81848
:100C7000FB2DFF77BF2EB6FE0BC02B2D2E7FA514AC
:100C800050F4B4FE0AC0B2FC08C02B2D2E7E05C065
:100C90007A2C2B2D03C07A2C01C0752C24FF0DC09B
:100CA000FE01EA0DF11D8081803311F4297E09C017
:100CB00022FF06C07394739404C0822F867809F0D3
:100CC000739423FD13C020FF06C05A2C731418F42C
:100CD000530C5718732C731468F4B70180E290E03A
:100CE0002C870E94DB0673942C85F5CF731410F4C7
:100CF000371801C0312C24FF12C0B70180E390E007
:100D00002C870E94DB062C8522FF17C021FF03C021
:100D100088E590E002C088E790E0B7010CC0822F20
:100D2000867859F021FD02C080E201C08BE227FDE8
:100D30008DE2B70190E00E94DB06A51438F4B701FC
:100D400080E390E00E94DB065A94F7CFAA94F40166
:100D5000EA0DF11D8081B70190E00E94DB06A11031
:100D6000F5CF332009F451CEB70180E290E00E9424
:100D7000DB063A94F6CFF7018681978102C08FEFA8
:100D80009FEF2C96E2E10C948707FC0105906150DF
:100D900070400110D8F7809590958E0F9F1F089591
:100DA000FC016150704001900110D8F7809590953A
:100DB0008E0F9F1F08950F931F93CF93DF93182FCC
:100DC000092FEB018B8181FD03C08FEF9FEF20C0C6
:100DD00082FF10C04E815F812C813D8142175307F5
:100DE0007CF4E881F9819F012F5F3F4F398328838D
:100DF000108306C0E885F985812F0995892B29F78D
:100E00002E813F812F5F3F4F3F832E83812F902F75
:100E1000DF91CF911F910F910895FA01AA272830F1
:100E200051F1203181F1E8946F936E7F6E5F7F4FB7
:100E30008F4F9F4FAF4FB1E03ED0B4E03CD0670F33
:100E4000781F891F9A1FA11D680F791F8A1F911D86
:100E5000A11D6A0F711D811D911DA11D20D009F4D6
:100E600068943F912AE0269F11243019305D319318
:100E7000DEF6CF010895462F4770405D4193B3E001
:100E80000FD0C9F7F6CF462F4F70405D4A3318F0A8
:100E9000495D31FD4052419302D0A9F7EACFB4E059
:100EA000A6959795879577956795BA95C9F7009711
:100EB0006105710508959B01AC010A2E06945795B2
:100EC000479537952795BA95C9F7620F731F841F09
:100ED000951FA01D08952F923F924F925F926F929F
:100EE0007F928F929F92AF92BF92CF92DF92EF92BA
:100EF000FF920F931F93CF93DF93CDB7DEB7CA1B3B
:100F0000DB0B0FB6F894DEBF0FBECDBF09942A8865
:100F1000398848885F846E847D848C849B84AA840D
:100F2000B984C884DF80EE80FD800C811B81AA819A
:100F3000B981CE0FD11D0FB6F894DEBF0FBECDBF65
:080F4000ED010895F894FFCFC4
:100F48000002000200020002000200020002000289
:100F580000020002FF03FF03FF03FF03FF03FF0379
:100F6800FF03FF03FF03FF030006073C2145312071
:100F78004672616D65003C214532204F766572727C
:100F8800756E003C214533204F766572666C6F772D
:100F98000020003E5342003E3F003C202530346490
:100FA8002C20253034642C20253034640A0D0000B0
:00000001FF
