:100000000C9437000C94C4030C94E4020C94540038
:100010000C9454000C9454000C9454000C94540010
:100020000C9454000C94BC020C9454000C94540096
:100030000C9454000C9454000C9454000C945400F0
:100040000C9454000C9454000C94D3000C940801AC
:100050000C9454000C9444060C9454000C945400DA
:100060000C9454000C9454003C4F4B0A0D00112486
:100070001FBECFEFD4E0DEBFCDBF11E0A0E0B1E006
:10008000E2EDF9E102C005900D92A637B107D9F76C
:1000900022E0A6E7B1E001C01D92A933B207E1F763
:1000A0000E9471090C94E70C0C94000010927B01E3
:1000B00010927C0110927D0110927E0181E090E00F
:1000C000A0E0B0E080937F0190938001A093810134
:1000D000B09382010E942704E89AE99A83B781606D
:1000E00083BF889583B78E7F83BF08958091760103
:1000F000882309F443C0809178018823C9F0809156
:100100007F0190918001A0918101B09182018F7156
:100110008F5087FF06C091EF899F802D1124815059
:1001200004C09FE0899F802D112440E060E029C039
:10013000809177018823F9F060917F0170918001AF
:10014000809181019091820125E030E040E050E013
:100150000E94AC092F712F5027FF07C061EF269F27
:10016000202D11246FEF620F04C06FE0269F602DD9
:10017000112440E005C040E06FEF02C040E060E0C5
:1001800080E00C9444030E947600809176018823DD
:1001900011F0429A01C0429880917601811102C00B
:1001A0000C94560008951F920F920FB60F921124CF
:1001B0002F933F934F935F938F939F93EF93FF936F
:1001C0002091C0003091C600287180918B0190E091
:1001D00001968F70992740918A0150E08417950706
:1001E00039F080938B01FC01E257FE4F308301C050
:1001F00022E020938901FF91EF919F918F915F9170
:100200004F913F912F910F900FBE0F901F90189517
:100210001F920F920FB60F9211248F939F93EF931B
:10022000FF9390918D0180918C01981779F08091C6
:100230008C0190E001968F77992780938C01FC01C7
:10024000E256FE4F80818093C60005C08091C100B8
:100250008F7D8093C100FF91EF919F918F910F90BF
:100260000FBE0F901F90189510928D0110928C0167
:1002700010928B0110928A0197FF04C022E0209314
:10028000C0009F779093C5008093C40088E9809355
:10029000C10086E08093C200089590918B01809107
:1002A0008A019817A1F080918A0190E001968F70E1
:1002B000992780938A01FC01E257FE4F20818091AB
:1002C000890190E0982F8827820F911D089580E082
:1002D00091E0089590918B0180918A01981789F09F
:1002E000E0918A01F0E03196EF70FF27E257FE4F70
:1002F00020818091890190E0982F8827820F911D9D
:10030000089580E091E0089520918D0130E02F5F05
:100310003F4F2F77332740918C0150E0241735074A
:10032000D1F3F901E256FE4F808320938D01809135
:10033000C10080628093C1000895CF93DF93EC01E8
:100340008991882319F00E948401FACFDF91CF911F
:100350000895CF93DF93FC018491EF0121968823C8
:1003600021F00E948401FE01F7CFDF91CF91089523
:1003700080918B0120918A0190E04096821B910927
:100380008F709927089580918A0180938B01089539
:10039000CF93DF93E8E6F0E08491EF012196882384
:1003A00021F00E948401FE01F7CFDF91CF910895E3
:1003B000EF92FF920F931F93CF93DF93CDB7DEB7EA
:1003C000C058D1090FB6F894DEBF0FBECDBF0E9452
:1003D0004D01F82E082F192F10FDC0C013FF04C0C7
:1003E0008BE291E00E949D0112FF04C086E391E040
:1003F0000E949D0111FF04C083E491E00E949D01D1
:1004000080911E02823098F483E5F81210C040E01B
:1004100060E08FEF0E9444039CE088E10FB6F894FF
:10042000A895809360000FBE9093600011C09EE37A
:10043000F9120EC08FE0E82FF0E0E15EFD4F108270
:100440008150C9F781E080931E02F0921F0278C0AC
:100450000115110521F00D30110509F067C040E0CC
:1004600060E08FEF0E944403E0901E02F12C80E1D7
:10047000E816F104F8F480911F028E33D9F461E597
:1004800071E08FE192E00E94DA098C01892B91F0F2
:1004900092E0E916F10470F080912002833579F43E
:1004A00063E571E0C8010E94DF09892B19F4C801D6
:1004B0000E94C801EFE1F2E080E18E0F33C067E5F2
:1004C00071E0C8010E94DF09892BA1F740918701E3
:1004D000509188012091850130918601809183019E
:1004E0009091840160917A016F93609179016F938B
:1004F0005F934F933F932F939F938F938AE591E060
:100500009F938F938E010F5F1F4F1F930F930E9436
:100510000F0AC8010E949D010FB6F894DEBF0FBEFE
:10052000CDBFC8CF11928E13FDCF0AC0E0911E023D
:1005300081E08E0F80931E02F0E0E15EFD4FF082BD
:1005400080911E02803151F48FE0E82FF0E0E15EEF
:10055000FD4F10828150C9F710921E02C058DF4F24
:100560000FB6F894DEBF0FBECDBFDF91CF911F91C4
:100570000F91FF90EF9008951F920F920FB60F9278
:1005800011248F939F93AF93BF938FE68093B20014
:1005900080917F0190918001A0918101B0918201B1
:1005A0000196A11DB11D80937F0190938001A093BE
:1005B0008101B0938201BF91AF919F918F910F9074
:1005C0000FBE0F901F9018951F920F920FB60F92AB
:1005D00011248F939F93F894E99881E0809376019A
:1005E00083E397E00197F1F778949F918F910F90B3
:1005F0000FBE0F901F901895EF92FF920F931F93CD
:1006000040917B0150917C0160917D0170917E0150
:1006100080917F0190918001A0918101B091820130
:10062000481759076A077B0751F160917F01709164
:100630008001809181019091820124E630E040E0C8
:1006400050E00E94AC09672B682B692BC1F489E745
:10065000E82E81E0F82E00E010E021E043E250E0D7
:1006600064E270E085E290E00E94A70521E043E2A9
:1006700050E064E270E085E290E00E94B1041F91D6
:100680000F91FF90EF90089590E090938B008093EE
:100690008A00609567BD50E05093890040938800C0
:1006A000089584B1866084B9569A84B5836C84BDFC
:1006B00085B5836085BDE0E8F0E080818A6A80834B
:1006C000E1E8F0E08081836080838FEF87BD109246
:1006D00089001092880010928B0010928A00089571
:1006E00086E08093B10081E0809370008FE6809374
:1006F000B2000895399A8FE880937A0080E480935D
:100700007C000895A89514BEE0E6F0E08081886141
:10071000808310820FB6F894A8958091600088615C
:1007200080936000109260000FBE08954598089570
:10073000459A08953D9A08958BB18C608BB981E0FC
:100740008DBB109269000895449A089586B183FB89
:10075000992790F981E08927809378010895549A28
:10076000559A579A5F9A5C985D9A08950E94700313
:100770000E947A03449A0E9496030E94AF03429A11
:1007800081E08093760108951F920F920FB60F9229
:1007900011242F933F934F935F936F937F938F9386
:1007A0009F93AF93BF93EF93FF93F894E89889E9F1
:1007B00093E00197F1F700C04A9937C09091760114
:1007C00081E0891B8093760198E288E10FB6F89466
:1007D000A895809360000FBE909360008091760191
:1007E000882341F00E94B60310928B0010928A0079
:1007F00017BC06C010928B0010928A008FEF87BD45
:1008000010928900109288004A9907C08FEF99E5ED
:100810000197F1F700C00000F7CF0E9482038FEF2D
:1008200093EB0197F1F700C000007894FF91EF91EE
:10083000BF91AF919F918F917F916F915F914F91F8
:100840003F912F910F900FBE0F901F9018954498D5
:100850000E9498035F9810928B0010928A008FEF8D
:1008600087BD1092890010928800109276014298FC
:100870000895AF92CF92EF920F931F930E9482033D
:100880000E94510385E090E00E9434010E949A0387
:1008900080E6A82E90E5C92E2EECE22E00E010E0B6
:1008A00021E043E250E064E270E085E290E00E94E3
:1008B00032050E94A4030E949C030E94270478949E
:1008C0001F910F91EF90CF90AF900895382FFC01BA
:1008D00080E04CE89E2F931B961758F4219198E0E6
:1008E000522F5827869550FD842726959150C1F7A1
:1008F000F1CF08956F927F929F92AF92BF92CF9265
:10090000DF92EF92FF920F931F93CF93DF937C01BF
:100910006B015A01922EE801209721F40CEC0E9401
:10092000A00711C005E50E94A0073E0188E0680EFF
:10093000711C0991292DA501B601C7010E94A007CC
:10094000C615D705B1F7DF91CF911F910F91FF9099
:10095000EF90DF90CF90BF90AF909F907F906F907F
:100960000895BF92CF92DF92EF92FF920F931F9361
:10097000CF93DF93EC017B016A01B22E0E943B070B
:10098000813071F02B2DA601B701CE010E947A04AF
:1009900004E42B2DA601B701CE010E94A00780E040
:1009A000DF91CF911F910F91FF90EF90DF90CF904B
:1009B000BF9008957F928F929F92AF92BF92CF92F5
:1009C000DF92EF92FF920F931F93CF93DF936C010F
:1009D0005B014A01722EE7010E943B078130A1F1C1
:1009E000272DA401B501C6010E947A040EEB272D24
:1009F000A401B501C6010E94A0078E01075F1F4F29
:100A0000272DA401B501C6010E94F607F7018193C5
:100A10007F01E017F107A1F7288139814A815B81C5
:100A20006C817D818E819F81A0E00E94CE0949F07A
:100A300068E0CE010E9466049885891304C080E0B6
:100A400003C083E001C082E0DF91CF911F910F913D
:100A5000FF90EF90DF90CF90BF90AF909F908F90DE
:100A60007F9008956F927F928F929F92AF92CF92D4
:100A7000EF92FF920F931F93CF93DF93EC014B0103
:100A80003A01F22E0E943B07813019F12F2DA3016C
:100A9000B401CE010E947A040EE42F2DA301B4010B
:100AA000CE010E94A0070E2D2F2DA301B401CE016F
:100AB0000E94A0070C2D2F2DA301B401CE010E948E
:100AC000A0070A2D2F2DA301B401CE010E94A0077B
:100AD00080E0DF91CF911F910F91FF90EF90CF9029
:100AE000AF909F908F907F906F900895AF92BF923C
:100AF000CF92DF92EF92FF920F931F93CF936C01EF
:100B00007B015A01C22F0E943B078130B1F02C2F8C
:100B1000A501B701C6010E947A0408E42C2FA501A3
:100B2000B701C6010E94A007F60180818C2B80834B
:100B3000F7018081C82BC08380E0CF911F910F9176
:100B4000FF90EF90DF90CF90BF90AF900895CF923D
:100B5000DF92EF92FF920F931F93CF93DF93CDB766
:100B6000DEB729970FB6F894DEBF0FBECDBF670181
:100B7000FE0131967F010E94DA04882321F0F601FC
:100B8000118210820AC08A8190E0982F88272981DB
:100B9000822BF6019183808380E029960FB6F8942A
:100BA000DEBF0FBECDBFDF91CF911F910F91FF90A0
:100BB000EF90DF90CF9008955F926F927F928F9227
:100BC0009F92AF92BF92CF92DF92EF92FF920F93DC
:100BD0001F93CF93DF930115110509F440C0E8017D
:100BE000522E5A016B017C010E943B078130E1F1DA
:100BF00003E3252DA501B601C7010E94A0078E01C0
:100C00003E0188E0680E711C4E01252DA501B6013C
:100C1000C7010E94F607F40181934F01E615F7051D
:100C2000A1F7FF8099818881892B9A81892B9B81EB
:100C3000892B9C81892B9D81892B9E81892B8F29D2
:100C400081F067E0CE010E9466048F1561F0F80123
:100C500011928F01E615F705D1F782E005C084E017
:100C600003C083E001C080E0DF91CF911F910F911D
:100C7000FF90EF90DF90CF90BF90AF909F908F90BC
:100C80007F906F905F9008951F920F920FB60F9212
:100C900011248F939F93EF93FF93E0912F02F0E045
:100CA0008091780090917900EE0FFF1FEF5CFD4F6F
:100CB00091838083FF91EF919F918F910F900FBE51
:100CC0000F901F90189540917F0150918001609185
:100CD00081017091820180917B0190917C01A091B2
:100CE0007D01B0917E01481759076A077B0709F417
:100CF00097C080912F028F5F80932F0280912F02E7
:100D0000833010F010922F0280917C00E0912F022E
:100D1000F0E0E85DFE4F9081807F892B80937C001E
:100D200080912F02811139C04198E0913002F0E0AA
:100D30008091310290913202EE0FFF1FEC5EFE4F68
:100D400091838083809130028F5F80933002809105
:100D500030028A3010F01092300240E050E060E043
:100D600070E0CB01FA01EE0FFF1FEC5EFE4F208119
:100D70003181620F731F811D911D4F5F5F4F4A309C
:100D8000510581F72AE030E040E050E00E94AC09D4
:100D900030938401209383013AC0419A80912F02BD
:100DA000813069F5E0913002F0E08091330290915A
:100DB0003402EE0FFF1FE050FF4F9183808340E02D
:100DC00050E060E070E0CB01FA01EE0FFF1FE05051
:100DD000FF4F20813181620F731F811D911D4F5F75
:100DE0005F4F4A30510581F72AE030E040E050E0A3
:100DF0000E94AC09309386012093850108C0809140
:100E000035029091360290938801809387018091FA
:100E10007A00806480937A008CE08A95F1F7000074
:100E2000089580917F0190918001A0918101B091FE
:100E300082014997A105B105E8F020918701309121
:100E4000880180918501909186018217930780F433
:100E500080918701909188012091850130918601D0
:100E6000821B930B039720F081E080937701089514
:100E7000109277010895CF93DF93DC01FB016FB7E8
:100E8000F8948C91822B8C938081822B80839C910F
:100E9000322F309593239C9388E292E00197F1F7EB
:100EA00000C000008081832380839BE79A95F1F73F
:100EB000EA018881D6EFDA95F1F79C91922B9C9309
:100EC0009081922B9083E8E2F2E03197F1F700C035
:100ED00000006FBF282381E009F480E0DF91CF910B
:100EE00008950F93FC019FB7F8948081822B808333
:100EF000DB018C91822B8C933081822F8095832310
:100F00008083002321F0BAE0BA95F1F704C082E6AD
:100F10008A95F1F700008081282B2083002329F097
:100F2000A2E6AA95F1F7000004C0B2E0BA95F1F785
:100F300000C09FBF81E0011101C080E00F910895C2
:100F40007F928F929F92AF92BF92CF92DF92EF9259
:100F5000FF920F931F93CF93DF936C015B014A01C4
:100F6000E22E702EFFB6F894C8E0D0E011E0012F19
:100F700007212E2DA401B501C6010E947107110F92
:100F80002197A9F7FFBEDF91CF911F910F91FF909D
:100F9000EF90DF90CF90BF90AF909F908F907F9019
:100FA0000895DC01FB016FB7F8948C91822B8C9330
:100FB0008081822B80839C91322F309593239C9348
:100FC00082E08A95F1F700C080818323808396E0D8
:100FD0009A95F1F70000FA018081FAE4FA95F1F7A9
:100FE0006FBF282381E009F480E008958F929F92DB
:100FF000AF92BF92CF92DF92EF92FF920F931F9327
:10100000CF93DF936C015B014A01E22EFFB6F894A7
:1010100008E010E0D1E0C0E02E2DA401B501C6012A
:101020000E94D1078D9FC0011124C82BDD0F0150F4
:10103000110991F7FFBE8C2FDF91CF911F910F9176
:10104000FF90EF90DF90CF90BF90AF909F908F90E8
:1010500008952F923F924F925F926F927F928F925C
:101060009F92AF92BF92CF92DF92EF92FF920F9337
:101070001F93CF93DF93CDB7DEB762970FB6F89487
:10108000DEBF0FBECDBFFE01319638E0DF011D92FD
:101090003A95E9F72FB60115110509F408C1DA8A66
:1010A000C98AF88AEF861A870987522E5A016B017E
:1010B0007C01F894312C88248394912C252DA50152
:1010C000B601C7010E943B07813029F4E985FA8502
:1010D00010822FBEEDC000EF252DA501B601C7017E
:1010E0000E94A00788E0389E900111243C872B873E
:1010F000AF85B889A20FB31FBE87AD87612C712C55
:10110000462C252DA501B601C7010E94D107182F35
:10111000252DA501B601C7010E94D107880F182B04
:10112000133020F4113058F0117062C0133009F000
:101130005FC0E985FA8510822FBE81E0B9C0A301A6
:1011400083E0569547958A95E1F7942FFE013996ED
:1011500030E087E0981720F42291322B8150FACFAB
:10116000242D2770E1E0F0E0EC0FFD1FE40FF51FE8
:101170009081892F90E041E0420F02C095958795BC
:101180004A95E2F7832B942D969596959695E1E0F6
:10119000F0E0EC0FFD1FE90FF11D8823A9F080811D
:1011A00090E0A401022E02C0440F551F0A94E2F7FA
:1011B0008423952302C0959587952A95E2F711E03F
:1011C0008823B1F010E014C03081A401022E02C0C7
:1011D000440F551F0A94E2F7832F90E08423952350
:1011E00002C0959587952A95E2F7182F43274083EB
:1011F000012F252DA501B601C7010E9471072F857A
:101200003889232B99F1E42DE695E695E695F0E0F3
:101210008B859C858E0F9F1FA989BA898A179B078A
:1012200028F0E985FA8510822FBE41C02D853E85C4
:1012300021153105D9F0842D8770E20FF31F11239A
:1012400051F0D40102C0AA0FBB1F8A95E2F7CD016D
:101250009081892B0AC0940102C0220F331F8A9506
:10126000E2F7C90180959081892380833FEF631A5B
:10127000730A80E46816710409F042CF3394332076
:1012800069F029813A814B815C816D817E818F81FA
:101290009885A0E00E94CE0909F010CFA985BA85F3
:1012A0003C922FBE81E0332019F080E001C084E041
:1012B00062960FB6F894DEBF0FBECDBFDF91CF911F
:1012C0001F910F91FF90EF90DF90CF90BF90AF9064
:1012D0009F908F907F906F905F904F903F902F9056
:1012E00008950E94390483B7817F846083BF0E9480
:1012F00056000E94D8010E9463060E9411070E94B6
:10130000FC020E94A6030E94C300E89A40917B0160
:1013100050917C0160917D0170917E0180917F01EF
:1013200090918001A0918101B091820148175907E5
:101330006A077B07F1F280917F0190918001A09173
:101340008101B091820180937B0190937C01A093F5
:101350007D01B0937E01CDCFA1E21A2EAA1BBB1B4B
:10136000FD010DC0AA1FBB1FEE1FFF1FA217B30771
:10137000E407F50720F0A21BB30BE40BF50B661F87
:10138000771F881F991F1A9469F76095709580954B
:1013900090959B01AC01BD01CF0108950024A7FDEC
:1013A00000942A173005400550056005700580053A
:1013B0009005089547E352E00E94E8090895FB0173
:1013C000DC018D91019080190110D9F3990B0895DA
:1013D000FA01A191B081009719F41097E1F0CD01C5
:1013E000DC01CD010D90002011F4C00113C0FB0100
:1013F0002191222319F02015D9F7F3CFFB01219178
:10140000201519F41E92119606C02223C1F70D90E3
:101410000020A1F7D001FA01A193B0830895AEE0B6
:10142000B0E0E5E1FAE00C94BE0C0D891E8986E07F
:101430008C831A8309838FEF9FE79E838D83AE0190
:10144000475E5F4F6F89788DCE0101960E94320A08
:101450002F813885F801E20FF31F10822E96E4E009
:101460000C94DA0CACE0B0E0E8E3FAE00C94B00CD9
:101470007C016B018A01FC0117821682838181FF46
:10148000BDC1CE0101964C01F7019381F60193FD98
:10149000859193FF81916F01882309F4ABC1853257
:1014A00039F493FD859193FF81916F01853229F481
:1014B000B70190E00E941A0CE7CF512C312C20E0AC
:1014C0002032A0F48B3269F030F4803259F083324C
:1014D00069F420612CC08D3239F0803339F42160F9
:1014E00026C02260246023C0286021C027FD27C0B9
:1014F00030ED380F3A3078F426FF06C0FAE05F9EF0
:10150000300D1124532E13C08AE0389E300D112463
:10151000332E20620CC08E3221F426FD6BC1206474
:1015200006C08C3611F4206802C0883641F4F601FA
:1015300093FD859193FF81916F018111C1CF982F08
:101540009F7D9554933028F40C5F1F4FFFE3F98380
:101550000DC0833631F0833771F0833509F05BC0FD
:1015600022C0F801808189830E5F1F4F4424439479
:10157000512C540115C03801F2E06F0E711CF801B6
:10158000A080B18026FF03C0652D70E002C06FEF20
:101590007FEFC5012C870E940F0C2C0183012C8545
:1015A0002F77222E17C03801F2E06F0E711CF80160
:1015B000A080B18026FF03C0652D70E002C06FEFF0
:1015C0007FEFC5012C870E94040C2C012C8520681C
:1015D000222E830123FC1BC0832D90E04816590660
:1015E000B0F4B70180E290E00E941A0C3A94F4CF74
:1015F000F50127FC859127FE81915F01B70190E0FD
:101600000E941A0C31103A94F1E04F1A510841141B
:10161000510471F7E5C0843611F0893639F5F801C7
:1016200027FF07C060817181828193810C5F1F4F0A
:1016300008C060817181072E000C880B990B0E5F2A
:101640001F4F2F76722E97FF09C090958095709549
:1016500061957F4F8F4F9F4F2068722E2AE030E0B8
:10166000A4010E94520CA82EA81844C0853729F462
:101670002F7EB22E2AE030E025C0F22FF97FBF2E58
:101680008F36C1F018F4883579F0B4C0803719F07E
:10169000883721F0AFC02F2F2061B22EB4FE0DC0CD
:1016A0008B2D8460B82E09C024FF0AC09F2F96603E
:1016B000B92E06C028E030E005C020E130E002C0CD
:1016C00020E132E0F801B7FE07C0608171818281BC
:1016D00093810C5F1F4F06C06081718180E090E0B4
:1016E0000E5F1F4FA4010E94520CA82EA818FB2DBC
:1016F000FF777F2E76FE0BC0372D3E7FA51450F46A
:1017000074FE0AC072FC08C0372D3E7E05C0BA2C9C
:10171000372D03C0BA2C01C0B52C34FF0DC0FE011B
:10172000EA0DF11D8081803311F4397E09C032FF4A
:1017300006C0B394B39404C0832F867809F0B394A1
:1017400033FD13C030FF06C05A2CB31418F4530CE9
:101750005B18B32CB31468F4B70180E290E03C87C7
:101760000E941A0CB3943C85F5CFB31410F43B18C7
:1017700001C0312C34FF12C0B70180E390E03C87F8
:101780000E941A0C3C8532FF17C031FD03C088E768
:1017900090E002C088E590E0B7010CC0832F867806
:1017A00059F031FF02C08BE201C080E237FD8DE2CB
:1017B000B70190E00E941A0CA51438F4B70180E339
:1017C00090E00E941A0C5A94F7CFAA94F401EA0D03
:1017D000F11D8081B70190E00E941A0CA110F5CF95
:1017E000332009F451CEB70180E290E00E941A0C38
:1017F0003A94F6CFF7018681978102C08FEF9FEF71
:101800002C96E2E10C94CC0CFC01059061507040E8
:101810000110D8F7809590958E0F9F1F0895FC01B9
:101820006150704001900110D8F7809590958E0F0F
:101830009F1F08950F931F93CF93DF93FB01238185
:1018400021FD03C08FEF9FEF28C022FF16C0468105
:101850005781248135814217530744F4A081B18117
:101860009D012F5F3F4F318320838C9326813781E9
:101870002F5F3F4F3783268310C0EB01092F182FAE
:101880000084F185E02D0995892BE1F68E819F81F9
:1018900001969F838E83812F902FDF91CF911F918F
:1018A0000F910895FA01AA27283051F1203181F1D2
:1018B000E8946F936E7F6E5F7F4F8F4F9F4FAF4F58
:1018C000B1E03ED0B4E03CD0670F781F891F9A1F6B
:1018D000A11D680F791F8A1F911DA11D6A0F711D1F
:1018E000811D911DA11D20D009F468943F912AE02B
:1018F000269F11243019305D3193DEF6CF01089513
:10190000462F4770405D4193B3E00FD0C9F7F6CF43
:10191000462F4F70405D4A3318F0495D31FD40520B
:10192000419302D0A9F7EACFB4E0A69597958795A1
:1019300077956795BA95C9F7009761057105089580
:101940009B01AC010A2E069457954795379527952C
:10195000BA95C9F7620F731F841F951FA01D0895C4
:101960002F923F924F925F926F927F928F929F92AF
:10197000AF92BF92CF92DF92EF92FF920F931F939D
:10198000CF93DF93CDB7DEB7CA1BDB0B0FB6F8944E
:10199000DEBF0FBECDBF09942A88398848885F848E
:1019A0006E847D848C849B84AA84B984C884DF80FF
:1019B000EE80FD800C811B81AA81B981CE0FD11DE3
:1019C0000FB6F894DEBF0FBECDBFED010895F894B9
:0219D000FFCF47
:1019D20000020002000200020002000200020002F5
:1019E20000020002FF03FF03FF03FF03FF03FF03E5
:1019F200FF03FF03FF03FF030006073C21453120DD
:101A02004672616D65003C214532204F76657272E7
:101A1200756E003C214533204F766572666C6F7798
:101A22000020003E5342003E3F003C2025303464FB
:101A32002C20253034642C20253034642C20253091
:061A420034640A0D0000EF
:00000001FF
