:100000000C9437000C948F030C94B9020C94540098
:100010000C9454000C9454000C9454000C94540010
:100020000C9454000C9491020C9454000C945400C1
:100030000C9454000C9454000C9454000C945400F0
:100040000C9454000C9454000C94A2000C94D7000F
:100050000C9454000C94FC050C9454000C94540023
:100060000C9454000C9454003C4F4B0A0D00112486
:100070001FBECFEFD4E0DEBFCDBF11E0A0E0B1E006
:10008000E4EEF8E102C005900D92A637B107D9F76A
:1000900022E0A6E7B1E001C01D92A733B207E1F765
:1000A0000E9402090C94700C0C94000010927901CB
:1000B00010927A0110927B0110927C0181E090E015
:1000C000A0E0B0E080937D0190937E01A0937F013A
:1000D000B09380010E94E903E89AE99A83B78160AE
:1000E00083BF889583B78E7F83BF0895329B1FC0DF
:1000F000809176018823C9F080917D0190917E01E5
:10010000A0917F01B09180018F718F5087FF06C051
:1001100091EF899F802D1124815004C09FE0899F19
:10012000802D112440E060E005C04FEF01C040E0A9
:1001300060E080E00C9417030E947600329B0C94E0
:10014000560008951F920F920FB60F9211242F930D
:100150003F934F935F938F939F93EF93FF934091C0
:10016000C0005091C60048718091890190E00196CD
:100170008F7099272091880130E08217930739F01A
:1001800080938901FC01E457FE4F508301C042E097
:1001900040938701FF91EF919F918F915F914F91D4
:1001A0003F912F910F900FBE0F901F9018951F92A7
:1001B0000F920FB60F9211248F939F93EF93FF939B
:1001C00090918B0180918A01981779F080918A0132
:1001D00090E001968F77992780938A01FC01E4567D
:1001E000FE4F80818093C60005C08091C1008F7D45
:1001F0008093C100FF91EF919F918F910F900FBE5F
:100200000F901F90189510928B0110928A011092F6
:1002100089011092880197FF04C022E02093C0005A
:100220009F779093C5008093C40088E98093C100B4
:1002300086E08093C20008959091890180918801A1
:100240009817A1F08091880190E001968F7099270E
:1002500080938801FC01E457FE4F20818091870143
:1002600090E0982F8827820F911D089580E091E0FB
:1002700008959091890180918801981789F0E09103
:100280008801F0E03196EF70FF27E457FE4F2081A0
:100290008091870190E0982F8827820F911D089503
:1002A00080E091E0089520918B0130E02F5F3F4F77
:1002B0002F77332740918A0150E024173507D1F377
:1002C000F901E456FE4F808320938B018091C10099
:1002D00080628093C1000895CF93DF93EC018991F0
:1002E000882319F00E945301FACFDF91CF9108952E
:1002F000CF93DF93FC018491EF012196882321F0B5
:100300000E945301FE01F7CFDF91CF9108958091B4
:1003100089012091880190E04096821B91098F709D
:100320009927089580918801809389010895CF933A
:10033000DF93E8E6F0E08491EF012196882321F035
:100340000E945301FE01F7CFDF91CF910895EF9204
:10035000FF920F931F93CF93DF93CDB7DEB7C058B3
:10036000D1090FB6F894DEBF0FBECDBF0E941C01AD
:10037000F82E082F192F10FDC6C013FF04C08BE202
:1003800091E00E946C0112FF04C086E391E00E949C
:100390006C0111FF04C083E491E00E946C01809124
:1003A0001C028230A0F483E5F81211C040E060E046
:1003B0008FEF0E9417038CE028E130E00FB6F8942D
:1003C000A895209360000FBE8093600011C09EE34B
:1003D000F9120EC08FE0E82FF0E0E35EFD4F1082CF
:1003E0008150C9F781E080931C02F0921D027DC00C
:1003F0000115110521F00D30110509F06CC040E028
:1004000060E08FEF0E941703E0901C02F12C80E166
:10041000E816F104F8F480911D028E33D9F461E5F9
:1004200071E08DE192E00E946A098C01009791F0E1
:1004300092E0E916F10470F080911E02833569F4B0
:1004400063E571E0C8010E946F09892B19F4C801A6
:100450000E949701EDE1F2E033C067E571E0C80169
:100460000E946F09892BB1F7409185015091860157
:1004700020918301309184018091810190918201CA
:10048000609178016F93609177016F935F934F93C1
:100490003F932F939F938F938AE591E09F938F9340
:1004A0008E010F5F1F4F1F930F930E949F09C8017A
:1004B0000E946C010FB6F894DEBF0FBECDBFCACF4D
:1004C000119292E0ED32F907D9F740E060E080E068
:1004D0000E9417030AC0E0911C0281E08E0F8093F6
:1004E0001C02F0E0E35EFD4FF08280911C0280313F
:1004F00051F48FE0E82FF0E0E35EFD4F1082815071
:10050000C9F710921C02C058DF4F0FB6F894DEBF37
:100510000FBECDBFDF91CF911F910F91FF90EF9054
:1005200008951F920F920FB60F9211248F939F93ED
:10053000AF93BF938FE68093B20080917D0190913D
:100540007E01A0917F01B09180010196A11DB11D96
:1005500080937D0190937E01A0937F01B0938001F1
:10056000BF91AF919F918F910F900FBE0F901F90F1
:1005700018951F920F920FB60F9211248F939F938D
:10058000F894E998429A83E397E00197F1F7789419
:100590009F918F910F900FBE0F901F901895EF9223
:1005A000FF920F931F934091790150917A016091CE
:1005B0007B0170917C0180917D0190917E01A091E1
:1005C0007F01B0918001481759076A077B0751F1F5
:1005D00060917D0170917E0180917F0190918001F9
:1005E00024E630E040E050E00E943C09672B682B95
:1005F000692BC1F487E7E82E81E0F82E00E010E0D7
:1006000021E043E250E064E270E085E290E00E9485
:100610006A0521E043E250E064E270E085E290E0A8
:100620000E946C041F910F91FF90EF90089590E04D
:1006300090938B0080938A00609567BD50E0509343
:10064000890040938800089584B1866084B9569AE1
:1006500084B5836C84BD85B5836085BDE0E8F0E03A
:1006600080818A6A8083E1E8F0E080818360808312
:100670008FEF87BD109289001092880010928B0036
:1006800010928A00089586E08093B10081E0809303
:1006900070008FE68093B2000895399A8FE88093B6
:1006A0007A0080E480937C000895A89514BEE0E66B
:1006B000F0E0808188618083108288E10FB6F89431
:1006C00080936000109260000FBE089545980895D1
:1006D000459A08953D9A08958BB18C608BB981E05D
:1006E0008DBB109269000895449A089586B183FBEA
:1006F000882780F991E08927809376010895549A9C
:10070000559A579A5F9A5C985D9A08950E944303A0
:100710000E944D03449A0E9466030C947F031F922B
:100720000F920FB60F9211242F933F934F935F9325
:100730006F937F938F939F93AF93BF93EF93FF93A9
:10074000F894E8988FEF91E10197F1F700C000006D
:100750004A992EC088B194E0892788B989E993E045
:100760000197F1F700C032990E9486030E9476003B
:1007700028E288E190E00FB6F894A8958093600095
:100780000FBE209360004A9907C08FEF93EB01974B
:10079000F1F700C00000F7CF0E94550332990E9484
:1007A00086038FEF93EB0197F1F700C00000789478
:1007B000FF91EF91BF91AF919F918F917F916F9139
:1007C0005F914F913F912F910F900FBE0F901F900F
:1007D000189544980E9468035F9810928B001092BD
:1007E0008A008FEF87BD10928900109288000895CB
:1007F000AF92CF92EF920F931F930E9455030E94E6
:10080000240385E090E00E9403010E946A0390E6C1
:10081000A92E20E5C22E3EECE32E00E010E021E000
:1008200043E250E064E270E085E290E00E94F2046E
:100830000E9474030E946C030E948603429878947D
:100840001F910F91EF90CF90AF900895382FFC013A
:1008500080E04CE89E2F931B961758F4219198E066
:10086000522F5827869550FD842726959150C1F721
:10087000F1CF08959F92AF92BF92CF92DF92EF9205
:10088000FF920F931F93CF93DF93EC017B016A01DB
:10089000922E58010115110521F40CEC0E942F072E
:1008A0000FC005E50E942F0718E0F50101915F01D7
:1008B000292DA601B701CE010E942F071150A9F7DB
:1008C000DF91CF911F910F91FF90EF90DF90CF902C
:1008D000BF90AF909F900895BF92CF92DF92EF921A
:1008E000FF920F931F93CF93DF93EC017B016A017B
:1008F000B22E0E94CA06813079F02B2DA601B701D5
:10090000CE010E943A0404E42B2DA601B701CE01CA
:100910000E942F0780E001C081E0DF91CF911F91FD
:100920000F91FF90EF90DF90CF90BF9008957F924E
:100930008F929F92AF92BF92CF92DF92EF92FF92EF
:100940000F931F93CF93DF936C015B014A01722ECB
:10095000E7010E94CA06813089F1272DA401B50163
:10096000C6010E943A040EEB272DA401B501C60171
:100970000E942F07870129E0F22E272DA401B5013F
:10098000C6010E948607F80181938F01FA94A9F7A6
:10099000288139814A815B816C817D818E819F8133
:1009A000A0E00E945E0969F068E0CE010E94260482
:1009B0009885891741F092E0F92E05C0FF24F39441
:1009C00002C083E0F82E8F2DDF91CF911F910F9100
:1009D000FF90EF90DF90CF90BF90AF909F908F905F
:1009E0007F9008956F927F928F929F92AF92CF9255
:1009F000EF92FF920F931F93CF93DF93EC014B0184
:100A00003A01F22E0E94CA06813021F12F2DA30156
:100A1000B401CE010E943A040EE42F2DA301B401CB
:100A2000CE010E942F070E2D2F2DA301B401CE0160
:100A30000E942F070C2D2F2DA301B401CE010E947F
:100A40002F070A2D2F2DA301B401CE010E942F07DD
:100A500080E001C081E0DF91CF911F910F91FF9065
:100A6000EF90CF90AF909F908F907F906F90089570
:100A7000BF92CF92DF92EF92FF920F931F93CF938B
:100A8000DF937C01EB016A01B22E0E94CA0681301D
:100A9000B1F02B2DA601BE01C7010E943A0408E463
:100AA0002B2DA601BE01C7010E942F07F7018081EF
:100AB0008B29808388818B29888380E001C081E035
:100AC000DF91CF911F910F91FF90EF90DF90CF902A
:100AD000BF900895CF92DF92EF92FF920F931F93F2
:100AE000CF93DF93CDB7DEB729970FB6F894DEBF6B
:100AF0000FBECDBF6701FE0131967F010E949704B2
:100B0000882321F0F601118210820AC08A8190E0C8
:100B1000982F88272981822BF6019183808380E09A
:100B200029960FB6F894DEBF0FBECDBFDF91CF91EF
:100B30001F910F91FF90EF90DF90CF9008958F92CB
:100B40009F92AF92BF92CF92DF92EF92FF920F935C
:100B50001F93CF93DF937C016B015A01922EE80122
:100B60002097A1F10E94CA06813091F103E3292D5B
:100B7000A501B601C7010E942F078E0148E0842E0F
:100B8000292DA501B601C7010E948607F8018193AE
:100B90008F018A94A9F71F8189819881892B9A8175
:100BA000892B9B81892B9C81892B9D81892B9E81FF
:100BB000892B812B79F067E0CE010E9426048117F2
:100BC00059F088E019928150E9F708C084E007C025
:100BD00081E005C083E003C080E001C082E0DF91D6
:100BE000CF911F910F91FF90EF90DF90CF90BF902A
:100BF000AF909F908F9008951F920F920FB60F9213
:100C000011248F939F93EF93FF93E0912D02F0E0D7
:100C10008091780090917900EE0FFF1FE15DFD4F0C
:100C200091838083FF91EF919F918F910F900FBEE1
:100C30000F901F90189540917D0150917E01609119
:100C40007F01709180018091790190917A01A0914A
:100C50007B01B0917C01481759076A077B0709F4AB
:100C600097C080912D028F5F80932D0280912D027D
:100C7000833010F010922D0290917C00E0912D02B3
:100C8000F0E0E85DFE4F8081907F892B80937C00AF
:100C900080912D02811139C04198E0912E02F0E03F
:100CA00080912F0290913002EE0FFF1FEC5EFE4FFD
:100CB0009183808380912E028F5F80932E0280919A
:100CC0002E028A3010F010922E0220E030E060E018
:100CD00070E0CB01F901EE0FFF1FEC5EFE4F40818B
:100CE0005181640F751F811D911D2F5F3F4F2A3069
:100CF000310581F72AE030E040E050E00E943C09F5
:100D000030938201209381013AC0419A80912D0253
:100D1000813069F5E0912E02F0E0809131029091EE
:100D20003202EE0FFF1FE050FF4F9183808320E0DF
:100D300030E060E070E0CB01F901EE0FFF1FE05002
:100D4000FF4F40815181640F751F811D911D2F5FE1
:100D50003F4F2A30310581F72AE030E040E050E093
:100D60000E943C09309384012093830108C0809144
:100D70003302909134029093860180938501809193
:100D80007A00806480937A008CE08A95F1F7000005
:100D900008950895CF93DF93FC01DB013FB7F894EA
:100DA0008081822B80838C91822B8C938081922FE7
:100DB000909589238083C8E2D2E02197F1F700C0A3
:100DC00000008C9189238C93DBE7DA95F1F7EA0137
:100DD0009881D6EFDA95F1F78081822B80838C9110
:100DE000822B8C93E8E2F2E03197F1F700C000002B
:100DF0003FBF922381E009F480E0DF91CF91089515
:100E00000F93FC019FB7F8948081822B8083DB01D4
:100E10008C91822B8C938081322F30958323808319
:100E2000002321F0BAE0BA95F1F704C082E68A9572
:100E3000F1F700008081822B8083002329F0A2E655
:100E4000AA95F1F7000004C0B2E0BA95F1F700C02E
:100E50009FBF81E0011101C080E00F9108957F9252
:100E60008F929F92AF92BF92CF92DF92EF92FF92BA
:100E70000F931F93CF93DF937C016B015A01822E56
:100E8000702E9FB6F894C8E0D0E011E0012F072142
:100E9000282DA501B601C7010E940007110F219757
:100EA0002097A1F79FBEDF91CF911F910F91FF90E7
:100EB000EF90DF90CF90BF90AF909F908F907F90FA
:100EC0000895FC01DB013FB7F8948081822B808379
:100ED0008C91822B8C938081922F90958923808393
:100EE00082E08A95F1F700C08C9189238C93E6E02B
:100EF000EA95F1F70000FA019081FAE4FA95F1F72A
:100F00003FBF922381E009F480E008958F929F9281
:100F1000AF92BF92CF92DF92EF92FF920F931F9307
:100F2000CF93DF938C017B016A01822E9FB6F894E8
:100F3000C8E0D0E0AA24A394B12C282DA601B701C3
:100F4000C8010E946107A89E802D1124B82AAA0C0E
:100F50002197209791F79FBE8B2DDF91CF911F9105
:100F60000F91FF90EF90DF90CF90BF90AF909F9048
:100F70008F9008952F923F924F925F926F927F923F
:100F80008F929F92AF92BF92CF92DF92EF92FF9299
:100F90000F931F93CF93DF93CDB7DEB762970FB652
:100FA000F894DEBF0FBECDBF5C014B013A01322E7B
:100FB0001A870987F88AEF86DA8AC98AFE0131968C
:100FC00088E0DF011D928A95E9F7CFB6E985FA85B9
:100FD000EF2B09F4FDC0F894D12C44244394512CF8
:100FE000232DA301B401C5010E94CA06813029F452
:100FF000A985BA851C92CFBEECC000EF232DA301BA
:10100000B401C5010E942F0728E0D29EF0011124EF
:10101000FC87EB878F8598898E0F9F1F9E878D8712
:10102000E12CF12C2E2C232DA301B401C5010E942B
:101030006107082F232DA301B401C5010E94610798
:10104000182F110F102B133020F4113058F011709D
:1010500061C0133009F05EC0A985BA851C92CFBE6D
:1010600081E0B7C0970183E0369527958A95E1F72F
:10107000922FFE01399650E087E0981720F44291B4
:10108000542B8150FACF422D4770E1E0F0E0EC0F95
:10109000FD1FE20FF31F808190E021E0240F02C0CA
:1010A000959587952A95E2F7852B922D969596959D
:1010B0009695E1E0F0E0EC0FFD1FE90FF11D8823AC
:1010C000A9F0808190E09201042E02C0220F331F0C
:1010D0000A94E2F78223932302C0959587954A9557
:1010E000E2F711E08823B1F010E014C050819201C2
:1010F000042E02C0220F331F0A94E2F7852F90E0DE
:101100008223932302C0959587954A95E2F7182F7D
:1011100025272083012F232DA301B401C5010E949F
:101120000007EF85F889EF2B99F1E22DE695E6951A
:10113000E695F0E08B859C858E0F9F1F29893A8963
:101140008217930728F0A985BA851C92CFBE40C0AC
:101150002D853E8521153105D9F0822D8770E20F4E
:10116000F31F112351F0D20102C0AA0FBB1F8A95B1
:10117000E2F7CD019081982B0AC0920102C0220FA4
:10118000331F8A95E2F7C901809590819823908357
:101190003FEFE31AF30A80E4E816F10409F042CFC6
:1011A000D39469F029813A814B815C816D817E8184
:1011B0008F819885A0E00E945E0909F011CFA98572
:1011C000BA85DC92CFBE81E0DD2019F080E001C05D
:1011D00084E062960FB6F894DEBF0FBECDBFDF91FC
:1011E000CF911F910F91FF90EF90DF90CF90BF9024
:1011F000AF909F908F907F906F905F904F903F90B7
:101200002F9008950E94F80383B7817F846083BF85
:1012100042980E94A7010E941B060E94C9060E94D4
:10122000CF020E9476030E949C00E89A40917901C7
:1012300050917A0160917B0170917C0180917D01D8
:1012400090917E01A0917F01B091800148175907CC
:101250006A077B07F1F280917D0190917E01A09158
:101260007F01B09180018093790190937A01A093DE
:101270007B01B0937C01CDCFA1E21A2EAA1BBB1B30
:10128000FD010DC0AA1FBB1FEE1FFF1FA217B30752
:10129000E407F50720F0A21BB30BE40BF50B661F68
:1012A000771F881F991F1A9469F76095709580952C
:1012B00090959B01AC01BD01CF0108950024A7FDCD
:1012C00000942A173005400550056005700580051B
:1012D0009005089545E352E00E9478090895FB01C6
:1012E000DC018D91019080190110D9F3990B0895BB
:1012F000FA01A191B081009719F41097E1F0CD01A6
:10130000DC01CD010D90002011F4C00113C0FB01E0
:101310002191222319F02015D9F7F3CFFB01219158
:10132000201519F41E92119606C02223C1F70D90C4
:101330000020A1F7D001FA01A193B0830895AEE097
:10134000B0E0E5EAF9E00C94470C0D891E8986E0CF
:101350008C831A8309838FEF9FE79E838D83AE0171
:10136000475E5F4F6F89788DCE0101960E94C1095B
:10137000EF81F885E00FF11F10822E96E4E00C94C7
:10138000630CACE0B0E0E7ECF9E00C94390C7C01C4
:101390006B018A01FC0117821682838181FFBDC126
:1013A000CE0101964C01F7019381F60193FD8591E1
:1013B00093FF81916F01882309F4ABC1853239F421
:1013C00093FD859193FF81916F01853229F4B701D7
:1013D00090E00E94A90BE7CF512C312C20E0203265
:1013E000A0F48B3269F030F4803259F0833269F422
:1013F00020612CC08D3239F0803339F4216026C051
:101400002260246023C0286021C027FD27C030ED62
:10141000380F3A3078F426FF06C0FAE05F9E300DB0
:101420001124532E13C08AE0389E300D1124332E20
:1014300020620CC08E3221F426FD6BC1206406C0F0
:101440008C3611F4206802C0883641F4F60193FD11
:10145000859193FF81916F018111C1CF982F9F7D5D
:101460009554933028F40C5F1F4FFFE3F9830DC0B0
:10147000833631F0833771F0833509F05BC022C0C9
:10148000F801808189830E5F1F4F44244394512CBF
:10149000540115C03801F2E06F0E711CF801A080F4
:1014A000B18026FF03C0652D70E002C06FEF7FEFB3
:1014B000C5012C870E949E0B2C0183012C852F7760
:1014C000222E17C03801F2E06F0E711CF801A080C7
:1014D000B18026FF03C0652D70E002C06FEF7FEF83
:1014E000C5012C870E94930B2C012C852068222E8D
:1014F000830123FC1BC0832D90E048165906B0F4ED
:10150000B70180E290E00E94A90B3A94F4CFF50174
:1015100027FC859127FE81915F01B70190E00E9431
:10152000A90B31103A94F1E04F1A510841145104BB
:1015300071F7E5C0843611F0893639F5F80127FFD7
:1015400007C060817181828193810C5F1F4F08C049
:1015500060817181882777FD8095982F0E5F1F4FDE
:101560002F76B22E97FF09C0909580957095619562
:101570007F4F8F4F9F4F2068B22E2AE030E0A401AA
:101580000E94DB0BA82EA81844C0853729F42F7EB3
:10159000B22E2AE030E025C0F22FF97FBF2E8F3621
:1015A000C1F018F4883579F0B4C0803719F0883765
:1015B00021F0AFC02F2F2061B22EB4FE0DC08B2DB5
:1015C0008460B82E09C024FF0AC09F2F9660B92EF0
:1015D00006C028E030E005C020E130E002C020E194
:1015E00032E0F801B7FE07C060817181828193818A
:1015F0000C5F1F4F06C06081718180E090E00E5F3C
:101600001F4FA4010E94DB0BA82EA818FB2DFF770B
:10161000BF2EB6FE0BC02B2D2E7FA51450F4B4FEAA
:101620000AC0B2FC08C02B2D2E7E05C07A2C2B2DB3
:1016300003C07A2C01C0752C24FF0DC0FE01EA0DF9
:10164000F11D8081803311F4297E09C022FF06C07C
:101650007394739404C0822F867809F0739423FDE9
:1016600013C020FF06C05A2C731418F4530C5718DB
:10167000732C731468F4B70180E290E02C870E9409
:10168000A90B73942C85F5CF731410F4371801C08F
:10169000312C24FF12C0B70180E390E02C870E9418
:1016A000A90B2C8522FF17C021FF03C088E590E01D
:1016B00002C088E790E0B7010CC0822F867859F00D
:1016C00021FD02C080E201C08BE227FD8DE2B7015F
:1016D00090E00E94A90BA51438F4B70180E390E0D4
:1016E0000E94A90B5A94F7CFAA94F401EA0DF11DB8
:1016F0008081B70190E00E94A90BA110F5CF3320A3
:1017000009F451CEB70180E290E00E94A90B3A940F
:10171000F6CFF7018681978102C08FEF9FEF2C965D
:10172000E2E10C94550CFC010590615070400110F1
:10173000D8F7809590958E0F9F1F0895FC016150FA
:10174000704001900110D8F7809590958E0F9F1FE3
:1017500008950F931F93CF93DF93182F092FEB0159
:101760008B8181FD03C08FEF9FEF20C082FF10C0EF
:101770004E815F812C813D81421753077CF4E881C3
:10178000F9819F012F5F3F4F39832883108306C063
:10179000E885F985812F0995892B29F72E813F81CD
:1017A0002F5F3F4F3F832E83812F902FDF91CF916B
:1017B0001F910F910895FA01AA27283051F1203185
:1017C00081F1E8946F936E7F6E5F7F4F8F4F9F4FD5
:1017D000AF4FB1E03ED0B4E03CD0670F781F891F17
:1017E0009A1FA11D680F791F8A1F911DA11D6A0FE5
:1017F000711D811D911DA11D20D009F468943F9198
:101800002AE0269F11243019305D3193DEF6CF0196
:101810000895462F4770405D4193B3E00FD0C9F75C
:10182000F6CF462F4F70405D4A3318F0495D31FDC9
:101830004052419302D0A9F7EACFB4E0A69597951C
:10184000879577956795BA95C9F7009761057105F2
:1018500008959B01AC010A2E06945795479537953C
:101860002795BA95C9F7620F731F841F951FA01D96
:1018700008952F923F924F925F926F927F928F9234
:101880009F92AF92BF92CF92DF92EF92FF920F930F
:101890001F93CF93DF93CDB7DEB7CA1BDB0B0FB619
:1018A000F894DEBF0FBECDBF09942A8839884888D6
:1018B0005F846E847D848C849B84AA84B984C8846C
:1018C000DF80EE80FD800C811B81AA81B981CE0F63
:1018D000D11D0FB6F894DEBF0FBECDBFED01089548
:0418E000F894FFCFAA
:1018E40000020002000200020002000200020002E4
:1018F40000020002FF03FF03FF03FF03FF03FF03D4
:10190400FF03FF03FF03FF030006073C21453120CB
:101914004672616D65003C214532204F76657272D6
:10192400756E003C214533204F766572666C6F7787
:101934000020003E5342003E3F003C2025303464EA
:101944002C20253034642C20253034642C20253080
:0619540034640A0D0000DE
:00000001FF
