:100000000C9437000C9423010C944A010C94540076
:100010000C9454000C9454000C9454000C94540010
:100020000C9454000C94FB000C9454000C94540059
:100030000C9454000C9454000C9454000C945400F0
:100040000C9454000C9454000C947B020C94B00259
:100050000C9454000C9484080C9454000C94540098
:100060000C9454000C9454003C4F4B0A0D00112486
:100070001FBECFEFD4E0DEBFCDBF11E0A0E0B1E006
:10008000E2ECF9E102C005900D92AC35B107D9F769
:1000900022E0ACE5B1E001C01D92AE38B207E1F755
:1000A0000E9465090C94DF0C0C94000080915F01A4
:1000B000882309F456C0809161018823C9F080919A
:1000C000680190916901A0916A01B0916B018F71F3
:1000D0008F5087FF06C091EF899F802D112481509A
:1000E00004C09FE0899F802D112440E060E03CC067
:1000F000809160018823F1F060916801709169013D
:1001000080916A0190916B0125E030E040E050E081
:100110000E94A4092F712F5027FF07C041EF249F91
:10012000202D11244FEF420F1DC04FE0249F402D82
:10013000112418C080916C0190916D01843E924011
:1001400020F440E060E08FEF0FC080916C0190914F
:100150006D018032934010F44FEF04C040E06FEF28
:1001600002C040E060E080E00C94AA0198E288E1DF
:100170000FB6F894A895809360000FBE909360002E
:100180004A9907C08FEF99E50197F1F700C0000089
:10019000F7CF0E94E60110925D0110925E01E89A8D
:1001A000089580915E01882369F080915F0181113B
:1001B00009C00E940C0240E06FEF80E00E94AA019B
:1001C0000E94B60080915D01882369F080915F01F3
:1001D000882349F040E060E080E00E94AA010E948C
:1001E000B6000E94410280915F01882319F01B9B99
:1001F0000C94410208951F920F920FB60F92112492
:100200008F939F93AF93BF938FE68093B2008091BB
:10021000680190916901A0916A01B0916B0101960A
:10022000A11DB11D8093680190936901A0936A019B
:10023000B0936B01BF91AF919F918F910F900FBEC3
:100240000F901F9018951F920F920FB60F921124C6
:100250008F939F93F89489E993E00197F1F700C099
:100260004A9910C0E89880915F01882331F010927C
:100270005E0181E080935D0105C010925D0181E027
:1002800080935E0178949F918F910F900FBE0F9095
:100290001F9018951F920F920FB60F9211248F93F3
:1002A0009F93F894E99881E080935E0183E397E05F
:1002B0000197F1F778949F918F910F900FBE0F9057
:1002C0001F901895EF92FF920F931F934091640136
:1002D000509165016091660170916701809168019C
:1002E00090916901A0916A01B0916B01481759077B
:1002F0006A077B0751F160916801709169018091F3
:100300006A0190916B0124E630E040E050E00E94E9
:10031000A409672B682B692BC1F482E6E82E81E0E3
:10032000F82E00E010E021E043E250E064E270E0EB
:1003300085E290E00E94B10521E043E250E064E2F2
:1003400070E085E290E00E94BB041F910F91FF9046
:10035000EF90089590E090938B0080938A006095D1
:1003600067BD50E05093890040938800089584B1A0
:10037000866084B9569A84B5836C84BD85B58360E4
:1003800085BDE0E8F0E080818A6A8083E1E8F0E002
:100390008081836080838FEF87BD109289001092E7
:1003A000880010928B0010928A00089586E0809356
:1003B000B10081E0809370008FE68093B2000895D1
:1003C0008FE880937A0010927C000895A89514BE5F
:1003D000E0E6F0E080818861808310820FB6F894B7
:1003E000A895809160008861809360001092600001
:1003F0000FBE08958BB18C608BB981E08DBB1092DC
:100400006900089586B183FB992790F981E08927D7
:100410008093610108950895AF92CF92EF920F9368
:100420001F93F894E4E6F0E080818D7F80838081E3
:100430008E7F80830E94D6010E94E00185E090E0DB
:100440000E94DC0280E6A82E90E5C92E2EECE22E5A
:1004500000E010E021E043E250E064E270E085E279
:1004600090E00E943C052B9A5F9A2D9A2C9881E08F
:1004700080935F0178941F910F91EF90CF90AF9090
:100480000895F89410925F0110926801109269012A
:1004900010926A0110926B0110925C0110927A0026
:1004A000E4E6F0E0808183608083289820981092B1
:1004B0008B0010928A008FEF87BD109289001092F6
:1004C00088002B982D985F982C9AE89AE99A78944E
:1004D00083B7816083BF889583B78E7F83BF08957C
:1004E0000E94E6010E94B7010E94FA01249A259A0F
:1004F000579A789408951F920F920FB60F92112475
:100500002F933F934F935F938F939F93EF93FF931B
:100510002091C0003091C60028718091780190E050
:1005200001968F7099274091770150E084179507C5
:1005300039F080937801FC01E558FE4F308301C00B
:1005400022E020937601FF91EF919F918F915F912F
:100550004F913F912F910F900FBE0F901F901895C4
:100560001F920F920FB60F9211248F939F93EF93C8
:10057000FF9390917A0180917901981779F0809199
:10058000790190E001968F77992780937901FC019A
:10059000E557FE4F80818093C60005C08091C10061
:1005A0008F7D8093C100FF91EF919F918F910F906C
:1005B0000FBE0F901F90189510927A01109279013A
:1005C000109278011092770197FF04C022E02093E7
:1005D000C0009F779093C5008093C40088E9809302
:1005E000C10086E08093C2000895909178018091C7
:1005F00077019817A1F08091770190E001968F70B4
:10060000992780937701FC01E558FE4F2081809166
:10061000760190E0982F8827820F911D089580E041
:1006200091E008959091780180917701981789F071
:10063000E0917701F0E03196EF70FF27E558FE4F2B
:1006400020818091760190E0982F8827820F911D5C
:10065000089580E091E0089520917A0130E02F5FC5
:100660003F4F2F7733274091790150E0241735070A
:10067000D1F3F901E557FE4F808320937A018091F1
:10068000C10080628093C1000895CF93DF93EC0195
:100690008991882319F00E942C03FACFDF91CF9122
:1006A0000895CF93DF93FC018491EF012196882375
:1006B00021F00E942C03FE01F7CFDF91CF91089526
:1006C000809178012091770190E04096821B9109FA
:1006D0008F7099270895809177018093780108950C
:1006E000CF93DF93E8E6F0E08491EF012196882331
:1006F00021F00E942C03FE01F7CFDF91CF910895E6
:10070000EF92FF920F931F93CF93DF93CDB7DEB796
:10071000C058D1090FB6F894DEBF0FBECDBF0E94FE
:10072000F502F82E082F192F10FDCCC013FF04C0BE
:1007300085E091E00E94450312FF04C080E191E052
:100740000E94450311FF04C08DE191E00E94450322
:1007500080910B02823098F483E5F81210C040E0DB
:1007600060E08FEF0E94AA019CE088E10FB6F89448
:10077000A895809360000FBE9093600011C09EE327
:10078000F9120EC08FE0E82FF0E0E45FFD4F108219
:100790008150C9F781E080930B02F0920C0284C073
:1007A0000115110521F00D30110509F073C040E06D
:1007B00060E08FEF0E94AA01E0900B02F12C80E133
:1007C000E816F104F8F480910C028E33D9F46BE250
:1007D00071E08CE092E00E94D2098C01892B91F0AB
:1007E00092E0E916F10470F080910D02833579F4FE
:1007F0006DE271E0C8010E94D709892B19F4C80184
:100800000E947003ECE0F2E080E18E0F3FC061E3F4
:1008100071E0C8010E94D709892BA1F7A09162015C
:10082000B0916301E0917401F091750160917201E2
:1008300070917301409170015091710120916E018E
:1008400030916F0180916C0190916D01BF93AF93D6
:10085000FF93EF937F936F935F934F933F932F9308
:100860009F938F9384E391E09F938F938E010F5F0B
:100870001F4F1F930F930E94070AC8010E94450350
:100880000FB6F894DEBF0FBECDBFBCCF11928E1352
:10089000FDCF0AC0E0910B0281E08E0F80930B0226
:1008A000F0E0E45FFD4FF08280910B02803151F463
:1008B0008FE0E82FF0E0E45FFD4F10828150C9F730
:1008C00010920B02C058DF4F0FB6F894DEBF0FBE78
:1008D000CDBFDF91CF911F910F91FF90EF900895C1
:1008E000382FFC0180E04CE89E2F931B961758F49C
:1008F000219198E0522F5827869550FD8427269500
:100900009150C1F7F1CF08956F927F929F92AF926D
:10091000BF92CF92DF92EF92FF920F931F93CF93EC
:10092000DF937C016B015A01922EE801209721F49C
:100930000CEC0E94B30611C005E50E94B3063E010F
:1009400088E0680E711C0991292DA501B601C70127
:100950000E94B306C615D705B1F7DF91CF911F915D
:100960000F91FF90EF90DF90CF90BF90AF909F904E
:100970007F906F900895BF92CF92DF92EF92FF9297
:100980000F931F93CF93DF93EC017B016A01B22E8B
:100990000E944E06813071F02B2DA601B701CE01C9
:1009A0000E94840404E42B2DA601B701CE010E940D
:1009B000B30680E0DF91CF911F910F91FF90EF90F0
:1009C000DF90CF90BF9008957F928F929F92AF92C9
:1009D000BF92CF92DF92EF92FF920F931F93CF932C
:1009E000DF936C015B014A01722EE7010E944E0603
:1009F0008130A1F1272DA401B501C6010E94840414
:100A00000EEB272DA401B501C6010E94B3068E018D
:100A1000075F1F4F272DA401B501C6010E940907DA
:100A2000F70181937F01E017F107A1F72881398150
:100A30004A815B816C817D818E819F81A0E00E94D3
:100A4000C60949F068E0CE010E94700498858913B8
:100A500004C080E003C083E001C082E0DF91CF9159
:100A60001F910F91FF90EF90DF90CF90BF90AF90CC
:100A70009F908F907F9008956F927F928F929F9218
:100A8000AF92CF92EF92FF920F931F93CF93DF938A
:100A9000EC014B013A01F22E0E944E06813019F111
:100AA0002F2DA301B401CE010E9484040EE42F2D4A
:100AB000A301B401CE010E94B3060E2D2F2DA30178
:100AC000B401CE010E94B3060C2D2F2DA301B40159
:100AD000CE010E94B3060A2D2F2DA301B401CE0131
:100AE0000E94B30680E0DF91CF911F910F91FF909C
:100AF000EF90CF90AF909F908F907F906F900895E0
:100B0000AF92BF92CF92DF92EF92FF920F931F931B
:100B1000CF936C017B015A01C22F0E944E06813097
:100B2000B1F02C2FA501B701C6010E94840408E48E
:100B30002C2FA501B701C6010E94B306F6018081E2
:100B40008C2B8083F7018081C82BC08380E0CF91FC
:100B50001F910F91FF90EF90DF90CF90BF90AF90DB
:100B60000895CF92DF92EF92FF920F931F93CF934E
:100B7000DF93CDB7DEB729970FB6F894DEBF0FBE6F
:100B8000CDBF6701FE0131967F010E94E4048823F6
:100B900021F0F601118210820AC08A8190E0982F1C
:100BA00088272981822BF6019183808380E0299612
:100BB0000FB6F894DEBF0FBECDBFDF91CF911F916E
:100BC0000F91FF90EF90DF90CF9008955F926F921A
:100BD0007F928F929F92AF92BF92CF92DF92EF92CD
:100BE000FF920F931F93CF93DF930115110509F423
:100BF00040C0E801522E5A016B017C010E944E0652
:100C00008130E1F103E3252DA501B601C7010E9462
:100C1000B3068E013E0188E0680E711C4E01252D41
:100C2000A501B601C7010E940907F40181934F0194
:100C3000E615F705A1F7FF8099818881892B9A81B4
:100C4000892B9B81892B9C81892B9D81892B9E815E
:100C5000892B8F2981F067E0CE010E9470048F15E7
:100C600061F0F80111928F01E615F705D1F782E0E6
:100C700005C084E003C083E001C080E0DF91CF9134
:100C80001F910F91FF90EF90DF90CF90BF90AF90AA
:100C90009F908F907F906F905F900895CF93DF9398
:100CA000DC01FB016FB7F8948C91822B8C938081CF
:100CB000822B80839C91322F309593239C9388E2E2
:100CC00092E00197F1F700C00000808183238083C8
:100CD0009BE79A95F1F7EA018881D6EFDA95F1F76B
:100CE0009C91922B9C939081922B9083E8E2F2E06E
:100CF0003197F1F700C000006FBF282381E009F4AD
:100D000080E0DF91CF9108950F93FC019FB7F89495
:100D10008081822B8083DB018C91822B8C933081AC
:100D2000822F809583238083002321F0BAE0BA9537
:100D3000F1F704C082E68A95F1F700008081282B44
:100D40002083002329F0A2E6AA95F1F7000004C051
:100D5000B2E0BA95F1F700C09FBF81E0011101C078
:100D600080E00F9108957F928F929F92AF92BF92F1
:100D7000CF92DF92EF92FF920F931F93CF93DF9367
:100D80006C015B014A01E22E702EFFB6F894C8E0B8
:100D9000D0E011E0012F07212E2DA401B501C601DD
:100DA0000E948406110F2197A9F7FFBEDF91CF9112
:100DB0001F910F91FF90EF90DF90CF90BF90AF9079
:100DC0009F908F907F900895DC01FB016FB7F8949E
:100DD0008C91822B8C938081822B80839C91322FEB
:100DE000309593239C9382E08A95F1F700C080812F
:100DF0008323808396E09A95F1F70000FA018081C1
:100E0000FAE4FA95F1F76FBF282381E009F480E056
:100E100008958F929F92AF92BF92CF92DF92EF92FE
:100E2000FF920F931F93CF93DF936C015B014A01F5
:100E3000E22EFFB6F89408E010E0D1E0C0E02E2DDD
:100E4000A401B501C6010E94E4068D9FC0011124D2
:100E5000C82BDD0F0150110991F7FFBE8C2FDF91D8
:100E6000CF911F910F91FF90EF90DF90CF90BF90A7
:100E7000AF909F908F9008952F923F924F925F92E4
:100E80006F927F928F929F92AF92BF92CF92DF929A
:100E9000EF92FF920F931F93CF93DF93CDB7DEB7FF
:100EA00062970FB6F894DEBF0FBECDBFFE0131963C
:100EB00038E0DF011D923A95E9F72FB601151105CB
:100EC00009F408C1DA8AC98AF88AEF861A8709877D
:100ED000522E5A016B017C01F894312C88248394A2
:100EE000912C252DA501B601C7010E944E06813027
:100EF00029F4E985FA8510822FBEEDC000EF252D7B
:100F0000A501B601C7010E94B30688E0389E900192
:100F100011243C872B87AF85B889A20FB31FBE87EA
:100F2000AD87612C712C462C252DA501B601C7017A
:100F30000E94E406182F252DA501B601C7010E94C5
:100F4000E406880F182B133020F4113058F011707C
:100F500062C0133009F05FC0E985FA8510822FBEA8
:100F600081E0B9C0A30183E0569547958A95E1F7E2
:100F7000942FFE01399630E087E0981720F42291F3
:100F8000322B8150FACF242D2770E1E0F0E0EC0FF6
:100F9000FD1FE40FF51F9081892F90E041E0420F83
:100FA00002C0959587954A95E2F7832B942D9695E7
:100FB00096959695E1E0F0E0EC0FFD1FE90FF11D2D
:100FC0008823A9F0808190E0A401022E02C0440F82
:100FD000551F0A94E2F78423952302C095958795BF
:100FE0002A95E2F711E08823B1F010E014C03081B7
:100FF000A401022E02C0440F551F0A94E2F7832F6A
:1010000090E08423952302C0959587952A95E2F771
:10101000182F43274083012F252DA501B601C701B5
:101020000E9484062F853889232B99F1E42DE695BB
:10103000E695E695F0E08B859C858E0F9F1FA9892C
:10104000BA898A179B0728F0E985FA8510822FBE96
:1010500041C02D853E8521153105D9F0842D87703D
:10106000E20FF31F112351F0D40102C0AA0FBB1FDE
:101070008A95E2F7CD019081892B0AC0940102C0C4
:10108000220F331F8A95E2F7C90180959081892349
:1010900080833FEF631A730A80E46816710409F0D5
:1010A00042CF3394332069F029813A814B815C81AE
:1010B0006D817E818F819885A0E00E94C60909F02C
:1010C00010CFA985BA853C922FBE81E0332019F05C
:1010D00080E001C084E062960FB6F894DEBF0FBED8
:1010E000CDBFDF91CF911F910F91FF90EF90DF90D7
:1010F000CF90BF90AF909F908F907F906F905F90B8
:101100004F903F902F9008951F920F920FB60F921D
:1011100011242F933F934F935F936F937F938F93FC
:101120009F93AF93BF93CF93DF93EF93FF93E091A0
:101130001C02F0E08091780090917900EE0FFF1F83
:10114000E25EFD4F91838083E0911C0220911D029D
:10115000A0911C02B0E0AA0FBB1FA25EBD4F8D91F3
:101160009C913AE0E39FF0011124E20FF11DEE0F94
:10117000FF1FE65DFD4F9183808340E050E060E01B
:1011800070E0CB01AAE020911C02FA01A29FE00DC1
:10119000F11D1124EE0FFF1FE65DFD4F208131810F
:1011A000620F731F811D911D4F5F5F4F4A305105C4
:1011B00051F7C0911C02D0E02AE030E040E050E05E
:1011C0000E94A409CC0FDD1FC459DE4F3983288348
:1011D00080911C028F5F80931C0280911C028530DD
:1011E000A0F010921C0280911D028F5F80931D025F
:1011F00080911D028A3048F080911C02811103C049
:1012000081E080935C0110921D0280917C00E0914E
:101210001C02F0E0E050FF4F9081807F892B80938B
:101220007C00FF91EF91DF91CF91BF91AF919F91A2
:101230008F917F916F915F914F913F912F910F907F
:101240000FBE0F901F901895409168015091690151
:1012500060916A0170916B018091640190916501C8
:10126000A0916601B0916701481759076A077B078B
:1012700049F080917A00806480937A008CE08A95AE
:10128000F1F70000089580915C018823E9F0209136
:1012900074013091750180917201909173018217F0
:1012A000930780F4809174019091750120917201EF
:1012B00030917301821B930B0B9720F081E0809398
:1012C000600108951092600108950E94700283B732
:1012D000817F846083BF0E9441020E94D1000E94EE
:1012E00002020E9480030E9424090E9443090E9476
:1012F000620180915C0181110E945600409164015D
:10130000509165016091660170916701809168015B
:1013100090916901A0916A01B0916B01481759073A
:101320006A077B07D1F28091680190916901A091D1
:101330006A01B0916B018093640190936501A09361
:101340006601B0936701C9CFA1E21A2EAA1BBB1B8D
:10135000FD010DC0AA1FBB1FEE1FFF1FA217B30781
:10136000E407F50720F0A21BB30BE40BF50B661F97
:10137000771F881F991F1A9469F76095709580955B
:1013800090959B01AC01BD01CF0108950024A7FDFC
:1013900000942A173005400550056005700580054A
:1013A0009005089548E252E00E94E0090895FB018B
:1013B000DC018D91019080190110D9F3990B0895EA
:1013C000FA01A191B081009719F41097E1F0CD01D5
:1013D000DC01CD010D90002011F4C00113C0FB0110
:1013E0002191222319F02015D9F7F3CFFB01219188
:1013F000201519F41E92119606C02223C1F70D90F4
:101400000020A1F7D001FA01A193B0830895AEE0C6
:10141000B0E0EDE0FAE00C94B60C0D891E8986E090
:101420008C831A8309838FEF9FE79E838D83AE01A0
:10143000475E5F4F6F89788DCE0101960E942A0A20
:101440002F813885F801E20FF31F10822E96E4E019
:101450000C94D20CACE0B0E0E0E3FAE00C94A80C01
:101460007C016B018A01FC0117821682838181FF56
:10147000BDC1CE0101964C01F7019381F60193FDA8
:10148000859193FF81916F01882309F4ABC1853267
:1014900039F493FD859193FF81916F01853229F491
:1014A000B70190E00E94120CE7CF512C312C20E0C4
:1014B0002032A0F48B3269F030F4803259F083325C
:1014C00069F420612CC08D3239F0803339F4216009
:1014D00026C02260246023C0286021C027FD27C0C9
:1014E00030ED380F3A3078F426FF06C0FAE05F9E00
:1014F000300D1124532E13C08AE0389E300D112474
:10150000332E20620CC08E3221F426FD6BC1206484
:1015100006C08C3611F4206802C0883641F4F6010A
:1015200093FD859193FF81916F018111C1CF982F18
:101530009F7D9554933028F40C5F1F4FFFE3F98390
:101540000DC0833631F0833771F0833509F05BC00D
:1015500022C0F801808189830E5F1F4F4424439489
:10156000512C540115C03801F2E06F0E711CF801C6
:10157000A080B18026FF03C0652D70E002C06FEF30
:101580007FEFC5012C870E94070C2C0183012C855D
:101590002F77222E17C03801F2E06F0E711CF80170
:1015A000A080B18026FF03C0652D70E002C06FEF00
:1015B0007FEFC5012C870E94FC0B2C012C85206835
:1015C000222E830123FC1BC0832D90E04816590670
:1015D000B0F4B70180E290E00E94120C3A94F4CF8C
:1015E000F50127FC859127FE81915F01B70190E00D
:1015F0000E94120C31103A94F1E04F1A5108411434
:10160000510471F7E5C0843611F0893639F5F801D7
:1016100027FF07C060817181828193810C5F1F4F1A
:1016200008C060817181072E000C880B990B0E5F3A
:101630001F4F2F76722E97FF09C090958095709559
:1016400061957F4F8F4F9F4F2068722E2AE030E0C8
:10165000A4010E944A0CA82EA81844C0853729F47A
:101660002F7EB22E2AE030E025C0F22FF97FBF2E68
:101670008F36C1F018F4883579F0B4C0803719F08E
:10168000883721F0AFC02F2F2061B22EB4FE0DC0DD
:101690008B2D8460B82E09C024FF0AC09F2F96604E
:1016A000B92E06C028E030E005C020E130E002C0DD
:1016B00020E132E0F801B7FE07C0608171818281CC
:1016C00093810C5F1F4F06C06081718180E090E0C4
:1016D0000E5F1F4FA4010E944A0CA82EA818FB2DD4
:1016E000FF777F2E76FE0BC0372D3E7FA51450F47A
:1016F00074FE0AC072FC08C0372D3E7E05C0BA2CAD
:10170000372D03C0BA2C01C0B52C34FF0DC0FE012B
:10171000EA0DF11D8081803311F4397E09C032FF5A
:1017200006C0B394B39404C0832F867809F0B394B1
:1017300033FD13C030FF06C05A2CB31418F4530CF9
:101740005B18B32CB31468F4B70180E290E03C87D7
:101750000E94120CB3943C85F5CFB31410F43B18DF
:1017600001C0312C34FF12C0B70180E390E03C8708
:101770000E94120C3C8532FF17C031FD03C088E780
:1017800090E002C088E590E0B7010CC0832F867816
:1017900059F031FF02C08BE201C080E237FD8DE2DB
:1017A000B70190E00E94120CA51438F4B70180E351
:1017B00090E00E94120C5A94F7CFAA94F401EA0D1B
:1017C000F11D8081B70190E00E94120CA110F5CFAD
:1017D000332009F451CEB70180E290E00E94120C50
:1017E0003A94F6CFF7018681978102C08FEF9FEF81
:1017F0002C96E2E10C94C40CFC0105906150704001
:101800000110D8F7809590958E0F9F1F0895FC01C9
:101810006150704001900110D8F7809590958E0F1F
:101820009F1F08950F931F93CF93DF93FB01238195
:1018300021FD03C08FEF9FEF28C022FF16C0468115
:101840005781248135814217530744F4A081B18127
:101850009D012F5F3F4F318320838C9326813781F9
:101860002F5F3F4F3783268310C0EB01092F182FBE
:101870000084F185E02D0995892BE1F68E819F8109
:1018800001969F838E83812F902FDF91CF911F919F
:101890000F910895FA01AA27283051F1203181F1E2
:1018A000E8946F936E7F6E5F7F4F8F4F9F4FAF4F68
:1018B000B1E03ED0B4E03CD0670F781F891F9A1F7B
:1018C000A11D680F791F8A1F911DA11D6A0F711D2F
:1018D000811D911DA11D20D009F468943F912AE03B
:1018E000269F11243019305D3193DEF6CF01089523
:1018F000462F4770405D4193B3E00FD0C9F7F6CF54
:10190000462F4F70405D4A3318F0495D31FD40521B
:10191000419302D0A9F7EACFB4E0A69597958795B1
:1019200077956795BA95C9F7009761057105089590
:101930009B01AC010A2E069457954795379527953C
:10194000BA95C9F7620F731F841F951FA01D0895D4
:101950002F923F924F925F926F927F928F929F92BF
:10196000AF92BF92CF92DF92EF92FF920F931F93AD
:10197000CF93DF93CDB7DEB7CA1BDB0B0FB6F8945E
:10198000DEBF0FBECDBF09942A88398848885F849E
:101990006E847D848C849B84AA84B984C884DF800F
:1019A000EE80FD800C811B81AA81B981CE0FD11DF3
:1019B0000FB6F894DEBF0FBECDBFED010895F894C9
:0219C000FFCF57
:1019C20000010206073C214531204672616D650027
:1019D2003C214532204F76657272756E003C21457E
:1019E20033204F766572666C6F770020003E53425B
:1019F200003E3F003C20253034642C2025303464E6
:101A02002C20253034642C20253034642C202530C1
:0C1A120034642C20253034640A0D0000E0
:00000001FF
