:1000000009C00FC00DC00CC00BC00AC009C008C099
:1000100007C006C011241FBECFE9CDBF20D034C019
:10002000EFCF1F920F920FB60F9211248F939F93D1
:10003000F8941BBE98B380E1892788BB80E797E1DD
:1000400000000197E9F7B19BFECF80E48BBF789465
:100050009F918F910F900FBE0F901F90189580E188
:1000600087BB8FE288BB80E48BBF15BE8ABF85B794
:10007000877E806185BF789485B7806285BF8895CB
:0C00800085B78F7D85BFF8CFF894FFCFC7
:00000001FF
