:1038000011241FBECFEFD4E0DEBFCDBF21E0A0E08A
:10381000B1E001C01D92A038B207E1F70E94381C48
:103820000C94D31D0C94371C9091C00095FFFCCFD5
:103830008093C60008958091C00087FFFCCF8091DF
:10384000C600089581E40E94141C86E50E94141CA1
:1038500082E50E94141C82E40E94141C8FE40E94E2
:10386000141C8FE40E94141C84E50C94141C08950D
:10387000CF93DF931F92CDB7DEB75E9A569AF89436
:10388000A89514BE809160008861809360001092BA
:10389000600088E10FB6F894809360001092600099
:1038A0000FBE52985A9A1092C50085E08093C400CA
:1038B00088E18093C10086E08093C2005F9A579AA6
:1038C000E12CF12C00E010E08091C00087FF04C0E3
:1038D0008091C6008335A1F080E2E81683E0F80607
:1038E00028F05A985E985698F80109958FEF93E260
:1038F0000197F1F700C000009FEFE91AF90AE4CF41
:103900000E94221C812CC12CD12C6CE0362E73E03D
:10391000672EE1E17E2E55245394F5E04F2E0E9450
:103920001B1C813611F489E525C1813449F40E94BC
:103930001B1C90E0D82ECC240E941B1CC82AFEC061
:10394000823641F489E50E94141C80E00E94141C18
:1039500080E810C1823409F071C00E941B1C0E94D3
:103960001B1C982E0E941B1C982F00E011E0B12C0C
:10397000B91428F499830E941B1C998101C08FEF10
:10398000F80181938F01B394F0E8BF12F1CF85E77E
:103990008812C6C0963409F034C0860120E030E0B9
:1039A000000F111F221F331FA0E0B1E08091000122
:1039B000B901A801900E1196EC91119790E09E2B01
:1039C000FA010C0150925700E89511244E5F5F4FA9
:1039D0006F4F7F4F941629F012968C911297129682
:1039E000EACFF80140925700E89507B600FCFDCFFA
:1039F00070925700E89576956795579547956A01B7
:103A00009DC0953409F09AC000E011E0C6018050D5
:103A100091405C01F801E90D2E2EC501800F911F28
:103A2000F80161918F010E94C51D2012F6CFFFEFB2
:103A3000CF1ADF0A9A94C90CD11C80C0873609F0CE
:103A40003EC00E941B1C0E941B1CB82E0E941B1C07
:103A50008634F9F4E12CF12CCC0CDD1CEE1CFF1C9F
:103A6000BC0CF60105911491802F0E94141C812F2B
:103A70000E94141C82E0C80ED11CE11CF11CBC1079
:103A8000F0CFB701A60176956795579547956A01DE
:103A900046CF853409F043CF8601AC2CAB0CC8016E
:103AA0000E94BD1D0E94141C0F5F1F4FA012F7CF74
:103AB0009FEFC91AD90ABA94CB0CD11C30CF8536E6
:103AC000A9F4E5E78E123AC0E0E0F0E0609257001A
:103AD000E89507B600FCFDCFE058FF4FE11588E3FD
:103AE000F807A1F770925700E89528C0853459F47B
:103AF000E8E1F0E00FB6F894A895E09360000FBEFF
:103B0000309260001BC08035C9F08C34B9F080372A
:103B100011F483E52FC0843729F485E70E94141C33
:103B200080E028C098E8980F923018F40E941B1C7F
:103B300005C0843529F40E941B1C882E8DE01AC014
:103B4000833519F40E94221CEACE863529F480E3DD
:103B50000E94141C88E30EC0833741F48BE00E945E
:103B6000141C84E90E94141C8EE104C08B3109F4FA
:103B7000D6CE8FE30E94141CD2CEF999FECF92BD0F
:103B800081BDF89A992780B50895262FF999FECF1F
:103B90001FBA92BD81BD20BD0FB6F894FA9AF99A6A
:0A3BA0000FBE01960895F894FFCFC0
:0400000300003800C1
:00000001FF
