:1038000011241FBECFEFD4E0DEBFCDBF21E0A0E08A
:10381000B1E001C01D92A038B207E1F70E94381C48
:103820000C94E01D0C94371C9091C00095FFFCCFC8
:103830008093C60008958091C00087FFFCCF8091DF
:10384000C600089581E40E94141C86E50E94141CA1
:1038500082E50E94141C82E40E94141C8FE40E94E2
:10386000141C8FE40E94141C84E50C94141C08950D
:10387000CF93DF931F92CDB7DEB7299A219AF894A0
:10388000A89514BE809160008861809360001092BA
:1038900060000FB6F894A8958091600088618093CD
:1038A0006000109260000FBE52985A9A1092C500A4
:1038B00085E08093C40088E18093C10086E0809316
:1038C000C2005F9A579AE12CF12C00E010E0809141
:1038D000C00087FF04C08091C6008335A1F080E25C
:1038E000E81683E0F80628F05A9829982198F801FC
:1038F00009958FEF93E20197F1F700C000009FEF69
:10390000E91AF90AE4CF0E94221C10E0612C712C04
:1039100078E1972EECE08E2EF3E02F2E01E1A0E06F
:10392000AA2EA1E0BA2E0E941B1C813611F489E553
:103930002EC1813451F40E941B1C682E712C762CF0
:1039400066240E941B1C682A06C1823641F489E560
:103950000E94141C80E00E94141C80E818C182346C
:1039600009F076C00E941B1C0E941B1C482E0E945E
:103970001B1C982F50E0E52E51E0F52ED12CD414CD
:1039800028F499830E941B1C998101C08FEFF701D5
:1039900081937F01D394F0E8DF12F1CF153709F05E
:1039A000CCC0963409F037C06301E12CF12CCC0C6B
:1039B000DD1CEE1CFF1C20910001B701A601A0E058
:1039C000B1E01296FD013197808130E0382B81E023
:1039D000FA01090180935700E89511244E5F5F4F6B
:1039E0006F4F7F4F8A2D8A1B840D11F02C91E9CFE8
:1039F00085E0F60180935700E89507B600FCFDCFFF
:103A000000935700E895DB01CA01B695A7959795F5
:103A100087953C01A0C0953409F09DC020E0E22EBE
:103A200021E0F22E6301342C3A0CF70161917F0101
:103A3000C6010E94D21DFFEFCF1ADF0A3E10F5CF5C
:103A40008FEF681A780A8FEF840D680E711C83C09F
:103A5000873609F043C00E941B1C0E941B1CF82ED5
:103A60000E941B1C863419F5A30160E070E02A0156
:103A70003B01440C551C661C771CDF2CD40CF20156
:103A8000E590F4908E2D0E94141C8F2D0E94141C22
:103A900092E0490E511C611C711CD410F0CFB3018F
:103AA000A20176956795579547953A013CCF8534A5
:103AB00009F039CF6301E62CEF0CC6010E94CA1D44
:103AC0000E94141CEFEFCE1ADE0AEC10F6CFFFEFC7
:103AD0006F1A7F0AFA946F0C711C25CF8536A9F4F2
:103AE000153709F038C0E0E0F0E020925700E89583
:103AF00007B600FCFDCFE058FF4FE11588E3F8075B
:103B0000A1F700935700E89526C0853449F40FB615
:103B1000F894A895909260000FBE809260001BC040
:103B20008035C9F08C34B9F0803711F483E52FC0AB
:103B3000843729F485E70E94141C80E028C098E8A7
:103B4000980F923018F40E941B1C05C0843529F48C
:103B50000E941B1C182F8DE01AC0833519F40E9497
:103B6000221CE1CE863529F480E30E94141C88E3F0
:103B70000EC0833741F48BE00E94141C84E90E943C
:103B8000141C8EE104C08B3109F4CDCE8FE30E946A
:103B9000141CC9CEF999FECF92BD81BDF89A992720
:103BA00080B50895262FF999FECF1FBA92BD81BD29
:103BB00020BD0FB6F894FA9AF99A0FBE01960895AF
:043BC000F894FFCFA7
:0400000300003800C1
:00000001FF
